S01500004144435F4652414D45574F524B2E737265633A
S315000000004829FE1F754C000065470000714C000032
S31500000010714C0000714C0000714C000000000000A3
S31500000020000000000000000000000000714C00000D
S31500000030714C000000000000E56000003162000025
S3150000004091440000A5230000FFFFFFFFFFFFFFFF15
S31500000050FFFFFFFFFFFFFFFFFFFFFFFFFFFFFFFFAA
S31500000060FFFFFFFFFFFFFFFFFFFFFFFFFFFFFFFF9A
S31500000070FFFFFFFFFFFFFFFFFFFFFFFFFFFFFFFF8A
S31500000080FFFFFFFFFFFFFFFFFFFFFFFFFFFFFFFF7A
S31500000400FFFFFFFFFFFDFFFFFFFFFFFFFFFFFFFFF8
S31500000410FFFFFFFFFFFFFFFFFFFFFFFFFFFFFFFFE6
S31500000420FFFFFFFFFFFFFFFFFFFFFFFFFFFFFFFFD6
S31500000430FFFFFFFFFFFFFFFFFFFFFFFFFFFFFFFFC6
S31500000440FFFFFFFFFFFFFFFFFFFFFFFFFFFFFFFFB6
S31500000450FFFFFFFFFFFFFFFFFFFFFFFFFFFFFFFFA6
S31500000460FFFFFFFFFFFFFFFFFFFFFFFFFFFFFFFF96
S31500000470FFFFFFFFFFFFFFFFFFFFFFFFFFFFFFFF86
S31500000480FFFFFFFFFFFFFFFFFFFFFFFFFFFFFFFF76
S31500000490FFFFFFFFFFFFFFFFFFFFFFFFFFFFFFFF66
S315000004A0FFFFFFFFFFFFFFFFFFFFFFFFFFFFFFFF56
S315000004B0FFFFFFFFFFFFFFFFFFFFFFFFFFFFFFFF46
S315000004C0FFFFFFFFFFFFFFFFFFFFFFFFFFFFFFFF36
S315000004D0FFFFFFFFFFFFFFFFFFFFFFFFFFFFFFFF26
S315000004E0FFFFFFFFFFFFFFFFFFFFFFFFFFFFFFFF16
S315000004F0FFFFFFFFFFFFFFFFFFFFFFFFFFFFFFFF06
S31500000500D003FE1F51042020CC03FE1F98000B00D1
S3150000051020000000200001002F0000002F00010035
S315000005200C00010011000000300000003000010046
S31500000530240000002400010024000200240003001F
S31500000540240004002400050013000000170000002A
S315000005502300000021000000210001000700000028
S31500000560070001000700020007000300070004005F
S31500000570070005000700060007000700120000003C
S3150000058044000000080000000B00000041000000CD
S31500000590400000004000010004000000430000008D
S315000005A02B0000002B000A002B000B002B000C0078
S315000005B02B000D002B0001002B0002002B00030076
S315000005C02B0004002B0005002B0006002B00070063
S315000005D02B0008002B0009000600000006000A0098
S315000005E006000B0006000C0006000D0006000E00BB
S315000005F006000F00060001000600020006000300C8
S3150000060006000400060005000600060006000700B6
S31500000610060008000600090015000000150001008C
S3150000062015000200310000002A000000450000000D
S315000006301000000003010000030000000300010099
S315000006400F0000000D0000002D0000004200000019
S315000006502C0000002C0001002C0002002C000300DE
S3150000066032000000280000001800000014000000FE
S31500000670140001001400020014000300140004001A
S3150000068014000500140006001400070014000800FA
S3150000069014000900340000003400010016000000B8
S315000006A0160001003500000036000000360001008B
S315000006B02200000033000000330100002900000082
S315000006C010B5054C237833B9044B13B10448AFF386
S315000006D000800123237010BD1C03FE1F00000000D4
S315000006E0C4860000084B10B51BB108480849AFF393
S315000006F000800848036803B910BD074B002BFBD0E8
S31500000700BDE81040184700BF00000000C486000086
S315000007102003FE1F7402FE1F0000000020B1034BE1
S315000007201B6803600020704701207047847D00002D
S3150000073000282CD0F0B5446887B01CB1144B226851
S315000007409A4201D007B0F0BD236DA16D226CE66C14
S31500000750106802930B449768A56C23655A18B24239
S3150000076089BF00235A001A4623650591B4F8543010
S31500000770616C04952A447E68B047236E0393002279
S315000007808DF80420E36D01A8984707B0F0BD7047C7
S315000007904743444128B1174B02689A4203D00720C9
S315000007A07047012070472DE9F041826BC36BD66814
S315000007B01568D3F808801F68041D2046002104F040
S315000007C08BFC10B10820BDE8F0812846B368984735
S315000007D0054648B1204604F0ABFC10B16420BDE8E4
S315000007E0F0812846BDE8F081D8F8083038469847A9
S315000007F00546EFE74743444128B1104B02689A4249
S3150000080003D0072070470120704770B5C36B041DE5
S31500000810204600219E681D6804F05EFC08B1082091
S3150000082070BD7368284698470546204604F080FC4C
S3150000083000280CBF2846642070BD00BF47434441D2
S3150000084028B1244B02689A4203D007207047012042
S3150000085070472DE9F041061D04460021304604F09C
S315000008603BFC10B10820BDE8F081E36B9A6818687C
S31500000870136A9847A36BDA6807461868D3699847DE
S31500000880236C9A68002818BF0746D26918689047F3
S31500000890054630463DB104F04BFC072D80460BD093
S315000008A02846BDE8F08104F043FC072F804604D0BB
S315000008B01FB13846BDE8F0812F46304604F0F6FBFE
S315000008C0002350EA08020CBF384664202360BDE8C6
S315000008D0F08100BF47434441B8B1874B02689A4252
S315000008E015D091B1CB6983B10B6873B14A6862B117
S315000008F02DE9F04F8F689FB0002F00F0C6804C693D
S315000009003CB903201FB0BDE8F08F012070470820D6
S315000009107047061D8363C26305460C4607640021C3
S3150000092030460122342304F069FB18B164201FB05D
S31500000930BDE8F08F0146304604F0CEFB0028F5D125
S315000009406368AA6B5F68EB6BD2F80C80D3F808A0DB
S315000009501B68D2F8009000930FCF0DF1580EAEE849
S315000009600F0097E80F008EE80F002268DFF890B1BD
S31500000970D2F804E00023ADF816301B931C93DEF882
S315000009800000DEF80410DEF80820DEF80C3010AFA8
S315000009900FC7DEF81000DEF81410CDF84CB003C710
S315000009A010A91495D8F80030484698470028A9D1D0
S315000009B02268D8F8043091684846984707460028C8
S315000009C065D116A9DAF8003000989847074600283E
S315000009D05DD104F10C0007C8E3690193236A2B6615
S315000009E0019BA864E9642F65EB656A65DAF81C303B
S315000009F0009802A99847074600284ED10146BDF83F
S31500000A0016300193142206A806F018F9A368AA6BFB
S31500000A10D3F804C02B6CD2F800B01F68BCE80F00F6
S31500000A200DF12C0EAEE80F00DCF80030CEF80030E9
S31500000A302368DB68584606A91B6A98478346D0B9DF
S31500000A40696D079B0B9AE86C1FFA83FE01FB03F3A3
S31500000A50BDF82210ADF830100699A2F80EE05160EC
S31500000A606964E1689160B0EB430FA18A9181AB653F
S31500000A701DD24FF0CD0BDAF8203000989847D8F801
S31500000A801C304846984758463CE701203AE7D8F8D4
S31500000A901C3048469847384634E7DAF82030009844
S31500000AA09847D8F81C304846984738462AE7A3683E
S31500000AB09B680BA91B683846984783460028DAD1FD
S31500000AC0A3689B6838469B68984783460028D2D11E
S31500000AD00A4B9DF820009B68019998478346002899
S31500000AE0C9D1304604F024FB00287FF41FAF024B27
S31500000AF02B60002006E700BF47434441B07E00005C
S31500000B003107000070B4104C2368020A9A4216D2CC
S31500000B106568C0B200F11006012355F8225003FAA9
S31500000B2006F62E420BD069B100EB0210A36853F80B
S31500000B302030C3F3400300200B7070BC70470320C5
S31500000B4070BC70471846FBE7E402FE1F084B1A68A4
S31500000B50000A904201D30320704731B1DA6843019D
S31500000B60043200209B580B8070470120704700BF5D
S31500000B70E402FE1F084B1A68000A904201D30320C4
S31500000B80704739B1DA684301043200209B581B0CC8
S31500000B900B80704701207047E402FE1F144A136859
S31500000BA0F0B4040A9C421DD25768C5B205F110067E
S31500000BB0012357F8244003FA06F6264212D0A1B1C3
S31500000BC0D468000A0434400103FA05F2005992B2CF
S31500000BD002EA1040904213BF002000200B700870FC
S31500000BE0F0BC70470320F0BC70471846FBE700BF17
S31500000BF0E402FE1F0C4B10B41C68000AA04200D28F
S31500000C001AB903205DF8044B7047DB685DF8044BA6
S31500000C10083303EB401022EA0103114041EA034185
S31500000C2041600020704700BFE402FE1F134BF0B482
S31500000C301C68020AA2420AD25F68C5B205F1100614
S31500000C40012457F8222004FA06F6164202D10320A0
S31500000C50F0BC70470129FAD800F47F400AD0AC40B6
S31500000C6024040021DB68083303EBD0000C43446006
S31500000C700020EDE7A94089B20024F3E7E402FE1F55
S31500000C8040B101230421022201704370C3708270B7
S31500000C900020704701207047012901D903207047C1
S31500000CA02C4BF0B51C68020AA2424ED25D68C0B257
S31500000CB000F11006012455F82250B4402C4244D0CD
S31500000CC000EB02109C681D6954F8203000293ED0C4
S31500000CD043F00401204E0E40EFF31087012383F307
S31500000CE010881E4B1A8892B222B94FF0400EEA7055
S31500000CF085F803E01A88013292B21A8087F31088C9
S31500000D00CF0354F8202007D5154F22F480320F4028
S31500000D1044F8202044F8207044F82060EFF3108156
S31500000D20012282F310881A880C4892B21AB10288FE
S31500000D30013A92B202801B889BB213B98022EB70F3
S31500000D40EA7081F310880020F0BD0320F0BD23F087
S31500000D500401BFE7E402FE1FD5FC011F3803FE1F96
S31500000D60D5FC001F0AB9032070470B4B10B41C6852
S31500000D70000AA04203D303205DF8044B7047DB68EA
S31500000D8022EA0104400108330A4042EA0442C25002
S31500000D905DF8044B00207047E402FE1F0AB90320E9
S31500000DA070470D4B70B41C68000AA04202D30320A2
S31500000DB070BC70474001DD682E582B5802EA0104CA
S31500000DC03443A4B261EA02021B0C22401B041A43FC
S31500000DD02A50002070BC7047E402FE1F2DE9F04146
S31500000DE0002839D009681E4D002701EBC000B8461F
S31500000DF04FF0010E8C88002335F81320A24218D03C
S31500000E000133032BF8D108318142F3D1FF43FFB2FE
S31500000E10012003F0DDFE134A92F8BB3448EA0308CA
S31500000E2008EA070782F8BB740120BDE8F04103F029
S31500000E309FBE0A6802F0B852B2F1807F05D00EFA62
S31500000E4003F647EA0602D7B2DAE70EFA03F248EAF1
S31500000E5002085FFA88F8D3E78046FF27D8E700BF85
S31500000E60D87D000000E0014070B582B002AB0024DE
S31500000E7003F8044D054618460E4603F053FC9DF84C
S31500000E800430DB0702D4062002B070BD202D02D943
S31500000E90032002B070BD012EFAD8084B1A691378E8
S31500000EA005D02B4303F0300320461370ECE703F024
S31500000EB0300323EA050520461570E5E7E402FE1F28
S31500000EC0002867D02DE9F84F4368002B5FD0014614
S31500000ED0804631F8040BFFF781FFB8F80030002B8D
S31500000EE052D02D4CDFF8B4E0A146002201204FF08D
S31500000EF0400B4FF0800AD8F80430DEF8107053F833
S31500000F003260DEF8085003EBC20399880B0AC9B2B7
S31500000F1001EB0313EFF3108C80F31088218889B25C
S31500000F2011B9F97087F803B02188013189B221809F
S31500000F308CF3108816F4803F55F8231007D021F45F
S31500000F40803126F4803C45F8231045F823C045F847
S31500000F502360EFF3108180F3108823889BB22BB1B6
S31500000F60B9F80030013B9BB2A9F8003023889BB248
S31500000F7013B9FB7087F803A081F310880132B8F823
S31500000F80003092B29342B6D80020BDE8F88F012017
S31500000F90BDE8F88F012070473803FE1FE402FE1FEC
S31500000FA0002832D04368002B2FD0F0B587B006ACAE
S31500000FB0002309210193164A04F8141D154ED7681B
S31500000FC00293054603930493059302A92046B84766
S31500000FD04FF00A0C029ABDF80C308DF804C002A935
S31500000FE0F2602046059A72603360B8470122029B80
S31500000FF08DF8052002A92046B360B847029B3361ED
S315000010002846FFF75DFF07B0F0BD0120704700BF1F
S31500001010947E0000E402FE1F2DE9F041304C226868
S31500001020050A954284B003460CD26268C6B20F46E2
S315000010304FF0010806F1100152F8252008FA01F1D7
S31500001040114203D1032004B0BDE8F08104A902AA2D
S3150000105041F80C2D4046ADF80C300297ADF80080F3
S3150000106006EB0515FFF7BAFE2069A268EFF31084B8
S3150000107088F310881B490B889BB213B94026C370AE
S31500001080C6700B8801339BB20B8084F31088FC0377
S3150000109052F8253007D523F4803327F4803442F8FC
S315000010A0253042F8254042F82570EFF310820123DF
S315000010B083F310880B880B4C9BB25BB90B889BB2F1
S315000010C013B98021C370C17082F31088002004B068
S315000010D0BDE8F0812388013B9BB22380EEE700BF89
S315000010E0E402FE1F3803FE1F012901D903207047C1
S315000010F02C4BF0B51C68020AA2424ED25D68C0B203
S3150000110000F11006012455F82250B4402C4244D078
S3150000111000EB02109C681D6954F8203001293ED06E
S3150000112023F00101204E0E40EFF31087012383F3D5
S3150000113010881E4B1A8892B222B94FF0400EEA7000
S3150000114085F803E01A88013292B21A8087F3108874
S31500001150CF0354F8202007D5154F22F480320F40D4
S3150000116044F8202044F8207044F82060EFF3108102
S31500001170012282F310881A880C4892B21AB10288AA
S31500001180013A92B202801B889BB213B98022EB709F
S31500001190EA7081F310880020F0BD0320F0BD43F013
S315000011A00101BFE7E402FE1FD5FC011F3803FE1F45
S315000011B0D5FC001F20B1034B1B680360002070475D
S315000011C001207047087E00002DE9F04782B002AC8E
S315000011D0002544F8045D3C4D8946AF698246904639
S315000011E0214603201E464C460025B847B8F1060F97
S315000011F034D8DFE808F00F374953575B0400002165
S315000012004FF47A7202FB09F20B46019805F042FA96
S3150000121004460D469AF81330012B07D000230A9A8C
S3150000122000201370346002B0BDE8F0874FF6FF70FF
S315000012300021A94208BFA0424FF00003EFD2A20846
S31500001240AF0842EA8572B94203F1010308BF904232
S3150000125014463D46DBB2E2D2052BF0D1032002B0A4
S31500001260BDE8F087019816A3D3E90023A9FB000186
S3150000127005F010FA04460D469AF81330012BD5D026
S315000012804FF0FF300021D4E70198104A0023A9FB54
S31500001290000105F0FFF904460D46EDE701984FF40D
S315000012A07A72F3E7019CA9FB0445E5E72B464A461B
S315000012B00198002105F0EEF904460D46AAE700BFA5
S315000012C000CA9A3B000000001C7F000040420F004D
S315000012D0012970B514461E4620D01CD3022913D10D
S315000012E0A0FB02010023114A002505F0D3F98D4227
S315000012F008BF84420AD0002908BFB0F1FF3F05D0DD
S315000013008D4208BF844203D2032070BD4FF0FF30E8
S315000013103060002070BD00210025E8E7A0FB020137
S3150000132000236422002505F0B5F9E0E7A086010058
S3150000133068B1084BC2689A4201D00720704783689B
S315000013402BB1DA6A22F00102DA620020704701202E
S31500001350704700BF5450470068B1084BC2689A42B4
S3150000136001D00720704783682BB1DA6A42F0010288
S31500001370DA62002070470120704700BF54504700D2
S3150000138030B129B1074BC2689A4203D00720704793
S31500001390012070478368002BFAD09B6C0B600020FD
S315000013A0704700BF5450470000B3114BC2689A42C1
S315000013B001D0072070478368C3B130B4EFF31084BF
S315000013C0012383F310888368DA6AD96A002021F042
S315000013D00101D9629864DD6A02F0010125F001027B
S315000013E00A43DA6284F3108830BC704701207047E4
S315000013F05450470078B170B51D4CC568A54284B0FD
S3150000140002D0072004B070BD8468002C2ED021B90C
S31500001410032004B070BD012070470DF10B030025B9
S31500001420009303AB044603958DF80B50FFF7CCFEF3
S315000014300028E7D1A368DA6AD96A21F00101D962E6
S31500001440D96A9DF80B4021F0E06104F0070441EAF7
S315000014500461D9620399013959669864D96A02F020
S31500001460010221F001010A43DA62CBE70120C9E754
S315000014705450470030B129B11E4BC2689A4203D07E
S3150000148007207047012070472DE9F041876882B038
S315000014906FB37B6E0E4602A900250133B36041F897
S315000014A0045DFA6A04461448C2F30268836903209D
S315000014B098474FEA4808012303FA08F2019BB3FB59
S315000014C0F2F373603B6B03F001033370FB6A13F0B6
S315000014D0010F0CBF01232B463373237C03EB8303DD
S315000014E05B00B6332846F38102B0BDE8F0810120E7
S315000014F0FAE700BF545047001C7F000008B3F0B560
S315000015002B4CC568A54283B002D0072003B0F0BDBE
S315000015108768C7B115461E467A6E02AB0446084672
S31500001520002143F8041D01322946FFF7D1FE0028A9
S31500001530ECD1019BA26843B98EB1012E24D0184686
S31500001540E4E7012070470120E0E7591C14D076B982
S31500001550116B21F44031116330465365D6E7136BA6
S3150000156023F4403343F4003330461363CEE7012EB1
S3150000157018D093650020C9E776B1012EC6D1136B4A
S3150000158043F040731363C1E7116B21F0407141F0E2
S31500001590007118461163B9E7136B43F440333046C4
S315000015A01363B3E7116B21F040711163E1E700BFEC
S315000015B054504700002844D0234BC2689A4201D0B9
S315000015C0072070478268002A3BD030B5936B23F022
S315000015D0C0039363D36A23F00103D362817C4BB2C9
S315000015E013F1210F83B009D05B09203301F01F01ED
S315000015F00124164D04FA01F145F82310D38E23F485
S315000016008073D386938E044623F4807302A8002544
S315000016102B2193860195237C00F8041DADF8063036
S3150000162003F05EFA94F91230657413F1210F04D0B9
S31500001630074A126852F833301D600020E06003B09C
S3150000164030BD0120704700BF5450470000E100E064
S3150000165038840000002960D000285ED02DE9F041D2
S31500001660A34F8AB000230C460546487C04932B21E1
S31500001670ADF812008DF81010FA688DF80B30039350
S31500001680069307930893099304A806A9904706466C
S3150000169010B10AB0BDE8F0810AAA069942F8140D05
S315000016A03B69A96004A80621BDF81E809847BDF8CD
S315000016B01E309DF81420AA745B075CBF0123EB74EF
S315000016C00DF10B0348BFEE746168227A0093284639
S315000016D003ABFFF779FD0028DBD16369002B00F02F
S315000016E0518195F91220213222D0A2696A602B60BD
S315000016F0637C2B742378012B4FF0000200F04781A6
S31500001700022B6A7406920AD004A803F0B5F90746BC
S3150000171080B108200AB0BDE8F0810120704706AB11
S31500001720E068217C039AFFF7D3FD0028ECD0B0E7F0
S315000017300B20AEE7AE6804A803F06CF9F16A4FEA35
S31500001740D8084FF0FF3321F001014FF4254E012058
S3150000175028F00102F162C6F800E03761776177612F
S31500001760F76137627762B762F76230637763B763B0
S31500001770F7633764B764F36433657365B36573669B
S31500001780B366C6F88870C6F88C308AB17764F3669B
S315000017903367F3677367C6F88030B367C6F884307B
S315000017A0C6F89030C6F89430C6F89830C6F8A070DF
S315000017B0AE680698F36A9DF80B10039A23F4E023AB
S315000017C0F362336B43F002033363336B43F001037D
S315000017D03363336B23F002033363F36A01F00701CB
S315000017E023F0E06343EA0163013A0021F362726683
S315000017F0B164E3692BB11A78002A7FD19A78002A5E
S315000018003CD1B36B23F0C00343F04003B363636979
S31500001810002B00F0BF80A87C364AA37C126841B238
S315000018200029C0F2A78001F160401B0100F561406C
S31500001830DBB280F8003352F8313095F912001D60A2
S3150000184003F0EEF8AA7C42F3C40323F0604323F0CE
S31500001850030303F1604303F5614302F01F01012214
S315000018608A40C3F880211A60E37C1BB1F36A43F017
S315000018700103F362204BEB6000200AE7AA68D978DF
S31500001880938E277801F0010E23F0100343EA0E131E
S315000018909386938E01F0030123F0C00343EA81137C
S315000018A09386938E012F43F00C0393867BD0938E01
S315000018B0002F74D023F00C0343F008039386938E15
S315000018C023F0030343F001039386136C23F44023B0
S315000018D043F480231364136B002875D123F04073FF
S315000018E043F000731363938E43F48073938688E703
S315000018F0947E00003884000054504700F28E5F78D2
S3150000190094F800E007F0010C22F0100242EA0C12F3
S31500001910F286F28E07F0030722F0C00242EA87122F
S31500001920F286F28EBEF1010F42F00C02F28645D02D
S31500001930F28EBEF1000F3DD022F00C0242F00802FA
S31500001940F286F28E22F0030242F00102F286326C37
S3150000195022F4403242F480323264326B00283AD1AB
S3150000196022F4403242F400323263F28E42F4807244
S31500001970F28643E71F4F00F00F001B010744DBB25E
S315000019803B7658E72278012A7FF4B2AEA9E66B745B
S315000019900692B9E62378012B7FF466AF3BE723F086
S315000019A0030393869FE700231365938E43F0030397
S315000019B0938698E722F00302F286D6E7F164F28E68
S315000019C042F00302F286D0E7411C0BD023F04073AD
S315000019D01363906587E7471C08D022F440323263D0
S315000019E07065C2E743F0407313637CE742F440320C
S315000019F03263BAE7FCEC00E0024658B1064B0749F1
S31500001A001B68002B08BF0B460020596803EB8103B7
S31500001A101360704701207047F802FE1FE07F000048
S31500001A2088B10A4B1B6863B15A6800F1100103EBD9
S31500001A30820353F8042F40F8042B8842F9D1002082
S31500001A4070471C2070470120704700BFF802FE1F38
S31500001A5070B36AB3174BF0B51E681EB3164B077802
S31500001A601B68002404E00134B44203F1080319D0D2
S31500001A709D79BD42F7D193F805E04588B5EB9E0FF9
S31500001A80F1D1DD7990F801E005F00F0CF445EAD1CB
S31500001A90B1EB151FE7D19B881470C3F3090353807C
S31500001AA00020F0BDDF21FF23117053800B20F0BD15
S31500001AB0012070478403FE1F3884000020B1034BC9
S31500001AC01B6803600020704701207047AC7E000051
S31500001AD070B42A4C216851B1234604F57F70002268
S31500001AE001E053F8041F83420A44FAD11AB100BE3A
S31500001AF01D2070BC7047224D22482A600368190CCD
S31500001B00B1F5807F02D0002070BC7047196801399A
S31500001B100331F8D81C495E6A8E42F4D12B60016805
S31500001B206368486804EB830301EB800101F123003D
S31500001B30233301214FF47E4503E0013201310138A0
S31500001B40013B25FA02F4E40707D5072A10D0082A34
S31500001B5007D01E780478A642C9D11029EDD10020FD
S31500001B60D2E70478372CE8D01E78A642E5D0BEE747
S31500001B7006781C78A642E0D2B9E700BFE07F0000F5
S31500001B80F802FE1F9CB17F405237465300285ED0B4
S31500001B9000295CD08B4B2DE9F0439A6890F800C081
S31500001BA003EB82029478A44537D24FEA1C1802EB65
S31500001BB088060CF00F073589D2F804E025FA07F9F4
S31500001BC019F0010F29D0072FB67A09D902EB880838
S31500001BD00CF0070798F80BC00CF00F0C66442D0AA2
S31500001BE0DFF8E481DFF8E4C118F80780754F08EAEA
S31500001BF0050524091CF80550023402EB8402AC19D1
S31500001C0002EB440532F814206C78C2F3090225066B
S31500001C1003EB820305D4002B4BD14FF4AF60BDE834
S31500001C20F08317F8222045785208FDB14FF0020ED6
S31500001C30012604271C78E40705F1FF3552D5052A4D
S31500001C4000F2BE80DFE802F0332D211C1A050120C8
S31500001C5070479A781EFB0264033204EB92029200EC
S31500001C6013441A7854082246002DE3D1042A00F2C0
S31500001C70A480DFE802F0636363503B000822EFE7CD
S31500001C809A7817FB02629200EAE793F804C09C7800
S31500001C9014FB0CF2D41C0CF1030204EB920292002A
S31500001CA0DEE71A79033222F003020C32D8E70C225F
S31500001CB0D6E74478B4B9DC78C4F303144C72DC7804
S31500001CC00125C4F303048C728D804088002843D11B
S31500001CD037F822200EEB02220A609B78CB8008722E
S31500001CE0C86015E040F27950BDE8F083DA78C2F3B7
S31500001CF003124A72DA78C2F303028A725878C880ED
S31500001D0000228A800A72CA605B680B608307E9D585
S31500001D100020BDE8F083DA78C2F303124A72DA785B
S31500001D20C2F303028A725A78CA809A788A80043388
S31500001D3004200022CB6008720A60E9E7DC78C4F36D
S31500001D4003144C72DC78C4F303048C721D79ACB2B4
S31500001D508C804088844203D840F27A50BDE8F083F4
S31500001D60DC889E68012A04FB00640C601CD0022AF1
S31500001D700AD09C785B78002243EA0424CC800A725D
S31500001D80CA60002CE8D0C3E71C18EA1C247BCC8070
S31500001D909D780D72920805FB002003EB80030C333F
S31500001DA0CB60002CD8D0B3E7034400221C7BCC8048
S31500001DB00A72CA60002CCFD0AAE76420BDE8F0837F
S31500001DC000224DE7E07F00000C7E0000147E00003C
S31500001DD0034B04301B6823F820100020704700BF17
S31500001DE03C03FE1F034B021D1B68002023F8220044
S31500001DF0704700BF3C03FE1F034B1A68137863F05D
S31500001E007F031370002070473C03FE1F034B1A68C4
S31500001E10137803F07F031370002070473C03FE1F06
S31500001E2020B1034B1B6803600020704701207047F8
S31500001E30CC7E000060B1012808D1094B1B68002048
S31500001E4040214122187119711A717047012070479B
S31500001E50034B1B6840214122987099709A70704715
S31500001E603C03FE1F002836D070B51C4986B00023FF
S31500001E700B22019302930393049305930546CB68C3
S31500001E808DF8042001A802A99847044608B106B0B7
S31500001E9070BD134E029B336001A802F0BBFD6B6858
S31500001EA073B130682346AA6812F8231002EB830246
S31500001EB00431528820F821206A6801339A42F2D808
S31500001EC028780028E3D032681378002063F07F0377
S31500001ED0137006B070BD0120704700BF947E0000ED
S31500001EE03C03FE1F062070470620704790B10A4B40
S31500001EF002689A4201D00720704790F90630074AD7
S31500001F00C033116851F8232022F0807241F8232053
S31500001F100020704701207047004354444003FE1FD1
S31500001F2020B1034B1B6803600020704701207047F7
S31500001F30F87E000010B31A4B02689A4201D00720BF
S31500001F407047D9B1174B1B68DB8900229BB28A7197
S31500001F5090F9062018041AD4134B53F82230D87877
S31500001F6000F0C00080280BD0DB8940289BB28B8014
S31500001F7013D038B94FF480330B6070470120704797
S31500001F809B898B804FF480730B60002070475BB297
S31500001F90934204BF01238B71DEE7DBB28B80F1E74E
S31500001FA0004354444403FE1F0000FE1F0346F0B1E5
S31500001FB0114A0168914201D00720704790F9062026
S31500001FC012F1210F15D030B40C490D4D0C68C032FA
S31500001FD0002154F8220020F0807044F8220093F982
S31500001FE00620084645F82210196030BC70470120CB
S31500001FF070470B20704700BF004354444003FE1F48
S315000020000000FE1F78B31D4B02689A4201D00720DC
S31500002010704790F9063013F1210F26D0184A52F86E
S3150000202023209168F9B15168E9B1D17801F0300106
S3150000203010291CD0202910D0124AC033126852F839
S31500002040231021F4803142F8231052F8231041F076
S31500002050807142F82310002070479168890702D1E9
S3150000206052689207E8D0012070470B2070479168AC
S31500002070C907F8D45268D007DED5F4E700435444C4
S315000020800000FE1F4003FE1F2DE9F04182B00191C2
S315000020909DF820700092BDF8245070B190F906406A
S315000020A0294A52F82410C97801F0C001802903D0CA
S315000020B0062002B0BDE8F0811DB9012002B0BDE8DE
S315000020C0F081002BF9D0214906688E4201D0072005
S315000020D0EFE71F4E1F49D6F800E0D1F80080C03464
S315000020E05EF8241021F080714EF8241098F8001044
S315000020F021F0100188F80010019990F9064019B1F5
S3150000210052F8246001997160009919B152F824605F
S315000021100099B16052F82410CC788D81CB818B7BED
S31500002120CB7367F30514CC70FFF76CFF98F800309B
S31500002130002843F0100314BF1320002088F8003055
S3150000214002B0BDE8F08100BF0000FE1F004354440A
S315000021504003FE1F4403FE1F00283AD0002938D052
S315000021600B68002B35D0DA7812F0C00F04D0DB896B
S315000021709BB2B3F5807F2CD8514B02689A422AD085
S315000021802DE9F0474F4E337886B08046894623B313
S315000021904D4B1D68B9F80460002302E00133702B33
S315000021A035D003F1C004DFB255F82420C2F308028B
S315000021B09642F3D1454955F8242051F82300C2F33D
S315000021C00802A8F80420002849D0082006B0BDE877
S315000021D0F08701207047082070473D490193082287
S315000021E0CC6802930393049305938DF8042001A809
S315000021F00DEB0201A0470028E8D1364D029B2B606B
S3150000220001A802F039FC074658B10A20DEE7D5F8E6
S315000022107C320B20C3F30803A8F8043006B0BDE8EF
S31500002220F087DFF8A8A001A802F0F4FB39464FF4C6
S31500002230E072504604F002FD2B68C3F804A01A7B36
S31500002240062542F001021A738DF8045001A802A96E
S31500002250A0471D4A029D1560012333709AE7D9F8FD
S31500002260002000E01032D07810F0C00F1CBF907B29
S31500002270D073907810F0C00FF4D1164A104D146840
S31500002280227822F01002227099F80600D9F8002070
S3150000229041F8232088F80670C8F8005020B9237842
S315000022A043F01003237091E74046FFF7ABFE237817
S315000022B0002843F0100314BF13200020237085E785
S315000022C0004354444803FE1F4003FE1F0000FE1F48
S315000022D0947E00004403FE1FF0B583B00191009286
S315000022E0002851D090F906402A4951F82450EA783E
S315000022F012F0C00206D1284A056895420CD0072084
S3150000230003B0F0BD13B9132003B0F0BD224E076829
S31500002310B742F4D1802A33D0204D214A2E68156861
S31500002320C03456F8242022F0807246F824202A78F9
S3150000233022F010022A70019A4AB390F90620019EF3
S3150000234051F822406660009C1CB151F82240009E64
S31500002350A66051F82210CA7802F0C002802A0DD079
S3150000236002B9CB81FFF74EFE2B78002843F010030D
S3150000237014BF132000202B7003B0F0BD8B81F1E752
S31500002380EA8992B2002AC7D1012003B0F0BD90F9C4
S315000023900620D8E70000FE1F004354444003FE1FFA
S315000023A04403FE1F10B5012082B003F05DF8EFF381
S315000023B003830D4A103B12685BB252F833301C6837
S315000023C0EFF30380103840B202F02AFB34B1A36861
S315000023D023B102A8E26840F8042D9847012003F0D3
S315000023E041F802B010BD00BF38840000094A0A4B0C
S315000023F012680A48916910B4D46919604FF4004212
S315000024000021DC60586059619A601A615DF8044BDE
S31500002410704700BF1403FE1FFC02FE1F00127A0065
S31500002420374B1B6893F8283013F030023DD0102A42
S315000024300DD0202A3AD0DFED337A334AF0EE676AC0
S3150000244067EEA67AFCEEE77AC2ED057A7047028D52
S315000024502E4902F0030231F8121000294CD05B0617
S3150000246010B44AD5038D13F0100F0CBF03240024BB
S31500002470254A038D52F824005DF8044B07EE900AB6
S31500002480B8EE677A07EE901AB8EE676AC3F30523CB
S31500002490C7EE067A013306EE903AFAEEEF6A67EE79
S315000024A0A67AFCEEE77AC2ED057A704790F82B30F3
S315000024B0174A9B0932F813100029F6D0124A90F8F1
S315000024C02B30D2ED037A03F01F03B8EE677A06EEDF
S315000024D0903A07EE901AF8EE666AB8EE676AF7EE7B
S315000024E0007A76EEA76AC7EE067A67EEA67AFCEE63
S315000024F0E77AC2ED057A704770470324B8E700BF54
S315000025001403FE1F00000000FC02FE1F047F0000F3
S31500002510FC7E0000F8B50D4B1B68064693F820506C
S3150000252093F8217000200C4602F052FB96F8132413
S31500002530E9B2BC400C4022EA010344EA030186F8F2
S3150000254013140020BDE8F84002F012BB1403FE1F6E
S31500002550F8B50D4B1B68064693F8225093F8237086
S3150000256000200C4602F034FB96F88124E9B2BC4008
S315000025700C4022EA010344EA030186F88114002094
S31500002580BDE8F84002F0F4BA1403FE1F38B505465C
S315000025900C46002002F01CFB052C0AD8DFE804F0EC
S315000025A019242F033A0E95F8323023F0010385F8EB
S315000025B032300020BDE8384002F0DABA95F82A3009
S315000025C023F0010385F82A300020BDE8384002F0E8
S315000025D0CFBA95F8363023F0010385F8363000205F
S315000025E0BDE8384002F0C4BA95F8383023F001034C
S315000025F085F838300020BDE8384002F0B9BA95F8C1
S31500002600903423F0010385F890340020BDE838406B
S3150000261002F0AEBA95F8803423F0010385F88034D1
S315000026200020BDE8384002F0A3BA00BF38B5054621
S315000026300C46002002F0CCFA052C0AD8DFE804F09C
S3150000264019242F033A0E95F8323043F0010385F82A
S3150000265032300020BDE8384002F08ABA95F82A30B8
S3150000266043F0010385F82A300020BDE8384002F027
S315000026707FBA95F8363043F0010385F836300020EE
S31500002680BDE8384002F074BA95F8383043F00103DB
S3150000269085F838300020BDE8384002F069BA95F870
S315000026A0903443F0010385F890340020BDE83840AB
S315000026B002F05EBA95F8803443F0010385F8803461
S315000026C00020BDE8384002F053BA00BF03290ED0FF
S315000026D0052907D009B10020704790F83C0000F0AA
S315000026E00100704790F83C00C0F34010704790F826
S315000026F03C00C0F3C000704705292ED8DFE801F082
S315000027000A11181F260390F82A0000F0010080F035
S315000027100100704790F8360000F0010080F00100DB
S31500002720704790F8380000F0010080F00100704713
S3150000273090F8900400F0010080F00100704790F8D6
S31500002740320000F0010080F00100704790F880042C
S3150000275000F0010080F0010070470020704700BFC4
S31500002760036A90F82630704738B5054600200C46B7
S3150000277002F02EFA95F8133404F0010123F0400319
S3150000278043EA811185F813140020BDE8384002F0B1
S31500002790EFB900BF38B505460020144602F018FA16
S315000027A095F8A22004F00F0422F00F02144385F8D6
S315000027B0A2400020BDE8384002F0DAB9084B1B6899
S315000027C093F8283013F0300F04D104288CBF002072
S315000027D00120704705288CBF00200120704700BFEC
S315000027E01403FE1F06288CBF00200120704700BF7F
S315000027F090F8260000F00700704700BF38B5054680
S3150000280000200C4602F0E4F995F8261004F00704BF
S3150000281021F007010C4385F826400020BDE838402A
S3150000282002F0A6B9074B1B6893F828305B0601D463
S3150000283003207047038D13F0100F0CBF03200020F8
S31500002840704700BF1403FE1F38B5044600200D462E
S3150000285002F0BEF9238D032D0CBF23F0100343F0C5
S31500002860100323850020BDE8384002F081B900BF7F
S3150000287038B5224C2DED028B236893F8283003F0EF
S315000028803003102B0546B0EE408A1CD0202B02D018
S31500002890BDEC028B38BD002002F09AF9FCEEC87A36
S315000028A095F82B1017EE903A013B03F01F0221F02A
S315000028B01F03134385F82B30BDEC028B0020BDE8C7
S315000028C0384002F055B9002002F082F978EE087A15
S315000028D02A8DFCEEE77A22F47C5217EE903A013B01
S315000028E003F03F0342EA03232B85002002F040F960
S315000028F0236893F8283003F03003C7E71403FE1F5C
S3150000290070B51E4C236893F8283003F03003102B63
S3150000291082B0054619D0202B01D002B070BD184BED
S31500002920002033F8114002F053F995F82B3004F0EB
S31500002930030403F03F0343EA8413002085F82B3099
S3150000294002B0BDE8704002F013B90E4B01910020B1
S3150000295033F8116002F03CF92B8D06F0030623F0E4
S3150000296003031E432E85002002F002F92368019915
S3150000297093F8283003F03003CDE700BF1403FE1FA1
S31500002980147F00000C7F000038B51A4B1A6892F8C5
S31500002990293092F82A200546180748BF08784FF0D4
S315000029A0000448BF60F30E34D80644BF487860F38D
S315000029B00A24980644BF887860F30614580644BF74
S315000029C0C87860F30204D20744BF0A7962F312445E
S315000029D01B0644BF4B7963F31E748B79002063F3A7
S315000029E01A6402F0F5F82C620020BDE8384002F0C7
S315000029F0BFB800BF1403FE1F036AC3F302330B7094
S31500002A00036AC3F302234B70036AC3F302138B708A
S31500002A10036A03F00703CB70036AC3F302430B7127
S31500002A20036AC3F302734B71036AC3F302638B71C8
S31500002A30704700BF144B42781B6893F824109142EC
S31500002A401ED393F8262090ED017A07EE902AF8EE31
S31500002A50677AF4EEC77AF1EE10FA11D493F82530BE
S31500002A6007EE903AF8EE677AB4EEE77AF1EE10FAEE
S31500002A7006D40078032805D0B0FA80F040097047E4
S31500002A8000207047012070471403FE1F062921D835
S31500002A90DFE801F0080C1014181C0400006AC0F3EB
S31500002AA002607047006AC0F302307047006AC0F3E4
S31500002AB002207047006AC0F302107047006A00F0F7
S31500002AC007007047006AC0F302407047006AC0F30F
S31500002AD0027070470020704710B50446FFF7D6FF16
S31500002AE094F82630034A03F0070352F8233023FAFA
S31500002AF000F010BDFC02FE1F024B53F82000C84038
S31500002B00704700BFFC02FE1F30B5044683B00120AB
S31500002B100D4602F05DF802A8002300F8013D01F021
S31500002B20DFFC94F8AA30D806FBD494F8A030D90676
S31500002B30F7D494F8AA3023F0010384F8AA3094F865
S31500002B40AA30DA06FBD494F8A030DB06F7D4042DBD
S31500002B502BD094F8A02005F0030322F003021343C0
S31500002B6084F8A03094F8AA30D806FBD494F8A030A4
S31500002B70D906F7D494F8AA30042D0CBF43F001030C
S31500002B8023F0010384F8AA3094F8AA30DA06FBD4BD
S31500002B9094F8A030DB06F7D49DF8070001F0B4FCEA
S31500002BA0012001F0E5FF03B030BD94F8A03043F0FA
S31500002BB0030384F8A030D5E790F8AA30DB075ABFA4
S31500002BC090F8A00000F003000420704710B50446FA
S31500002BD0002001F0FDFF94F8403063F07F0384F895
S31500002BE0403094F8403043F0010384F84030002030
S31500002BF0BDE8104001F0BCBF10B50446002001F04E
S31500002C00E7FF94F8403023F0010384F8403094F84D
S31500002C10403003F07F0384F840300020BDE81040C8
S31500002C2001F0A6BF90F84000C009704790F8410037
S31500002C3000F00100704700BF38B590F8413013F03E
S31500002C40010401D1002038BD0546002001F0C0FF77
S31500002C5095F8413023F0010385F84130002001F05A
S31500002C6087FF204638BD00BF38B5054600200C4614
S31500002C7001F0AEFF95F8301004F0010421F00101D7
S31500002C800C4385F830400020BDE8384001F070BFA5
S31500002C9010B50446002001F09BFF94F8523043F033
S31500002CA0010384F852300020BDE8104001F060BFF7
S31500002CB010B50446002001F08BFF94F8523023F043
S31500002CC0010384F852300020BDE8104001F050BFE7
S31500002CD070B5044600200D46164601F079FF94F8BB
S31500002CE03E3003F07F0384F83E3094F83E3006F021
S31500002CF0070223F0700343EA021284F83E2094F898
S31500002D003E1005F0070521F007010D4384F83E50FB
S31500002D100020BDE8704001F02BBF00BF10B504468F
S31500002D20002001F055FF94F83E3063F07F0384F8ED
S31500002D303E300020BDE8104001F01ABF10B5044631
S31500002D40002001F045FF94F83E3003F07F0384F83D
S31500002D503E300020BDE8104001F00ABF10B5044621
S31500002D60002001F035FF94F8533043F0010384F856
S31500002D7053300020BDE8104001F0FABE10B50446FD
S31500002D80002001F025FF94F8533023F0010384F866
S31500002D9053300020BDE8104001F0EABE38B50546C4
S31500002DA000200C4601F014FF95F8243004F00701CA
S31500002DB023F0700343EA011185F824100020BDE8D2
S31500002DC0384001F0D5BE00BF124B70B41D681A68BA
S31500002DD092071BD50021104C196094F82320013866
S31500002DE0B0F1807FD2B20DD2F026072502F0F002B4
S31500002DF0586084F8236099601D6084F823200120C0
S31500002E0070BC70471D60084670BC7047012070BCDE
S31500002E10704700BF10E000E000ED00E090F8503091
S31500002E2001F00F0123F00F03194380F8501070478B
S31500002E3090F8500000F00F00704700BF90F8503037
S31500002E4063F07F0380F85030704700BF90F8503031
S31500002E5003F07F0380F85030704700BF90F85000B1
S31500002E60C009704738B5054600200C4601F0B0FE93
S31500002E7095F8A51004F0070421F007010C4385F826
S31500002E80A5400020BDE8384001F072BE024B1B6829
S31500002E9003600020704700BF847F000030B52A4CD5
S31500002EA087B0204601F044FC06A8284B00250322E3
S31500002EB00095DB6800F8182D02A902950395049584
S31500002EC005959847029860604FF6FF73294601936F
S31500002ED0FFF712FC28B910E0019B43B1019B013BAF
S31500002EE0019360680021FFF7F1FB0028F4D0019BF5
S31500002EF01BB94FF4CD7007B030BD60680621FFF7EF
S31500002F00B1FF4FF6FF730193FFF770FA6068042173
S31500002F10FFF78CFB04E0019B43B1019B013B01934E
S31500002F2060680421FFF7E8FB0028F4D1019B002B21
S31500002F30DFD0606804210522FFF712FC60680021DB
S31500002F40FFF706FB0020D6E71403FE1F947E000061
S31500002F5070B169B170B5074E044670680D46FFF74B
S31500002F6047FC294620707068FFF746FD002070BDBB
S31500002F70012070471403FE1F70B582B000294CD0A3
S31500002F800546002846D0334C6068FFF715FE042836
S31500002F9006463FD060686946FFF72EFD23689A68AB
S31500002FA00AB1032E4AD0DA6852B3022E28D193F81A
S31500002FB029205969160703D59DF8000088423AD39F
S31500002FC0D00603D59DF80100884234D3960603D572
S31500002FD09DF8020088422ED3500628D4120603D547
S31500002FE09DF805208A4226D393F82A30DB0703D5BD
S31500002FF09DF804308B421ED39DF806308B421AD3BF
S315000030002946012001F0A6FB6068FFF7DFFD0020DE
S3150000301002B070BD012002B070BD0E4D6868FFF7AA
S3150000302005FE044680B14FF4CB7002B070BD9DF82A
S3150000303003008842D2D2052002B070BD93F8292041
S3150000304019691007B8D4BBE76868FFF7D5FD2046B5
S31500003050E1E700BF1403FE1F38B5124C6068FFF7A6
S31500003060E5FD78B16068FFF7C3FB236893F8283065
S3150000307013F0300F054603D05B0608D405280DD0A3
S31500003080032D0BD06068FFF7D7FD002038BD6068C0
S31500003090FFF7C8FB052DF3D10328F3D140F29710B3
S315000030A038BD00BF1403FE1F08B5034B0146586820
S315000030B0FFF7DAFD002008BD1403FE1F08B5034B19
S315000030C05868FFF7E5FD002008BD00BF1403FE1F8A
S315000030D008B5034B5868FFF7EBFD002008BD00BF9D
S315000030E01403FE1F08B5044B0A4601465868FFF74D
S315000030F0EFFD002008BD00BF1403FE1F08B5034BFB
S315000031005868FFF70BFE002008BD00BF1403FE1F22
S3150000311008B5034B5868FFF711FE002008BD00BF35
S315000031201403FE1F38B50446FFF748FB08B9032011
S3150000313038BD631E012B11D9042C0FD02CB1032CE2
S3150000314003D0052C01D0002038BD114D21466868FA
S31500003150FFF7D2FA78B94FF4C87038BD0C4B214648
S315000031605868FFF7C9FA40F29113002814BF1846B1
S315000031704FF4C87038BD68682146FFF7A7FA40F2D9
S31500003180931300280CBF18464FF4C97038BD00BF12
S315000031901403FE1F70B506464FF6FE7440F29315F3
S315000031A001E0013C0CD03046FFF7BCFFA842F8D046
S315000031B038B16FF4C873C318022B38BF002070BD36
S315000031C0284670BD70B582B00D460446FFF7F6FA84
S315000031D010B9032002B070BD5C4E052C2146706804
S315000031E015D0FFF789FA18B140F2911002B070BD00
S315000031F0012C4ED9032C23D0631E012B65D9042C38
S315000032002BD0002C67D0032C1FD00020E2E7FFF75D
S3150000321073FA002844D1002D39D07068FFF7E8FA18
S315000032200528E1D02846FFF705FC0028D1D07068B4
S315000032302978FFF761FA002854D14FF4CA70C9E71C
S315000032407068FFF7B9FC042828D070682146FFF79C
S315000032503DFA58B340F29310BCE721467068FFF779
S3150000326095F94FF6FF73019304E0019B43B1019B6F
S31500003270013B019370680421FFF73EFA0028F4D061
S31500003280019B002B0CBF4FF4CD700020A2E701205C
S31500003290A0E77068FFF790FC0428ADD1052099E7F8
S315000032A07068FFF7BDF840F2911093E733687068D5
S315000032B093F82710FFF72EF970680021FFF754FAEC
S315000032C0706803210922FFF765FA70682146FFF747
S315000032D05DF900207EE770682146FFF7F7F90028C0
S315000032E0B8D1F2E721467068FFF7F0F90028B1D1AE
S315000032F0336893F828305B0603D570682978FFF7A2
S31500003300A3FA69787068114CFFF7FAFA95ED010A8D
S315000033107068FFF7ADFA7068FFF782F8336893F8C4
S315000033202810052001F00F01FFF7E6FB33685B6804
S31500003330984288BF0021606898BF0121FFF7E4FB2F
S3150000334070680521FFF722F95FE700BF1403FE1F2F
S3150000335070B582B00446FFF731FA10B9032002B007
S3150000336070BD2C4D6868FFF743FA84422BD00528C0
S3150000337024D0012C2AD06868264E2146FFF7BCF9D6
S31500003380D0B1022C14D0042C29D01CB1032C01D0AE
S31500003390052C11D168681F4D2146FFF797F938B9FA
S315000033A040F29310DBE770682146FFF7A5F918B1E4
S315000033B068682146FFF73AF90020D0E76868FFF70A
S315000033C031FAA042D5D140F29110C8E76868114E93
S315000033D0FFF728FC0028E6D040F29510BFE770689A
S315000033E02146FFF723F94FF6FF73019304E0019B93
S315000033F043B1019B013B019368680421FFF77CF907
S315000034000028F4D1019B002B0CBF4FF4CD70002097
S31500003410A5E700BF1403FE1F01280FD0022801D024
S315000034200020704708B508460021FFF7CBFE40B1E3
S3150000343040F29113984208BF002008BD0846FFF7E6
S3150000344087BF002008BD00BF51B170B500250D60D3
S315000034500C460646FFF7C6F928B90323184670BD81
S31500003460012318467047044B31465868FFF734FB72
S315000034702B462060184670BD1403FE1F38B5114D4B
S315000034802B6893F8290010F0010000D138BD002008
S3150000349001F09EFB68680C4CFFF7D0FC01E06CB1B4
S315000034A0013C6868FFF7DAFC0028F8D0002001F03C
S315000034B05FFB002C0CBF1420002038BD01F058FB28
S315000034C01420E3E71403FE1FFFFF0F0038B5114D6C
S315000034D02B6893F8290010F0010000D138BD0020B8
S315000034E001F076FB68680C4CFFF7B0FC01E064B1B4
S315000034F0013C6868FFF7B2FC0028F8D101F038FB00
S31500003500002C0CBF1420002038BD204601F030FBF3
S315000035101420E3E71403FE1FFFFF0F00F8B51C4D50
S315000035202B6893F8293013F0010324D0194B1E5C45
S31500003530FF2E01D10320F8BD002001F049FB686889
S31500003540154CFFF78BFC0746FFF7C0FF686831464E
S31500003550FFF764FC01E09CB1013C6868FFF768FC7A
S315000035608642F8D14FB9002001F002FB002C0CBFB7
S3150000357014200020F8BD1846F8BDFFF77FFFF2E7DC
S31500003580002FFAD1384601F0F3FA1420F8BD00BF37
S315000035901403FE1F7C7F0000FFFF0F0008B5054BDC
S315000035A01A6892F82920920702D55868FFF7D6FBC9
S315000035B0002008BD1403FE1F08B5054B1A6892F8D3
S315000035C02920920702D55868FFF7D8FB002008BDCE
S315000035D01403FE1F08B5064B1A6892F829205207F5
S315000035E003D501465868FFF7D9FB002008BD00BF88
S315000035F01403FE1F08B500F0F3FF07EE900AB8EEBD
S31500003600677AF7EE007A87EE877ADFED097ADFEDE3
S31500003610096A67EE277AC6EEA77AFCEEE77A17EE16
S31500003620900AFFF7D1FB00280CBF1220002008BD2E
S315000036300024744900401C4608B903207047FFF770
S31500003640D9BF00BFF0B587B00C460546FFF7B6F800
S3150000365010B9032007B0F0BD002C78D0684EA179D0
S31500003660326892F829301F076AD4D80602D56078E6
S315000036708842EED323F07F0303F0FF0013B1637992
S315000036808B42E6D392F82A30DF0702D523798B42A4
S31500003690DFD3042D58D0002328468DF808308DF846
S315000036A01430FFF729FA062103907068544FFFF78C
S315000036B013FA049002A800F0A3FF0028CAD1786884
S315000036C0FFF796F8854205D0002D42D0032D40D055
S315000036D0052D3ED070684A4F0021FFF715FA706835
S315000036E06946FFF789F99DF80620A3799A4244D2E4
S315000036F021467868FFF748F978682946FFF77EF88B
S3150000370000F06EFF3F4B042D18603FD0022D4DD0C8
S31500003710012D54D0032D57D0052D68D00621706891
S31500003720FFF7DAF90123049002A88DF8083000F0BB
S3150000373067FF044600288DD1FFF75CFF204689E726
S315000037402078884285D390E761B1052082E7012081
S3150000375080E770682946FEF7B9FF0028BAD140F223
S31500003760931077E763790BB10028EED17068FFF705
S3150000377059FA0028E9D1A1798DE778682946FFF73B
S315000037803DF878682146FFF7FFF8B9E733681C492A
S3150000379093F82820120625D49A685AB95B68002B3C
S315000037A0BCD070680121FFF7AFF9B7E733689A68B4
S315000037B0002AF3D070680321FFF7A6F9AEE7336855
S315000037C05B68002BAAD0ECE733685A68904201D9AF
S315000037D0002AA3D19B6898420ED9002B9ED0002ABE
S315000037E0E8D0DEE748682946FFF78EF996E73368A2
S315000037F05B68984292D8D4E7002B8FD0DAE700BFF7
S315000038001403FE1FA003FE1F00287DD02DE9F047FC
S31500003810054686B006A800232F7800F8113D04A9B6
S315000038208DF810308DF811308DF812308DF8133078
S315000038308DF814308DF815308DF81630FFF788FBAB
S3150000384095F815E0EE7C297DEA7DAB7D2C7E8DF822
S3150000385008E038468DF80A608DF809108DF80B20BF
S315000038608DF80C308DF80D40FEF7A8FF18B903202F
S3150000387006B0BDE8F0872B7806AA134413F8103C6F
S31500003880012BF4D0022C41D0DFF8E480D8F80030C8
S3150000389093F8283013F0300F14BF062605260024AF
S315000038A040F2911905F1040A052CE1B248D002ABA9
S315000038B0185DFFF7B1FD08B14845D9D10134B442CE
S315000038C0F2D13846FFF766FC0028D1D105F10C018C
S315000038D03846FFF7B7FE0028CAD19DF80740A74231
S315000038E010D006AB234413F8100C012822D0D8F8C8
S315000038F00400FEF797FF06AB0344014613F8100CCD
S31500003900012810D00020B3E7012070472879FEF780
S3150000391055FF0028ABD02B7906AA134413F8103CA8
S31500003920012BB1D1A3E7052CECD18F42EAD0FFF7EA
S3150000393073FD9DE72146FFF76FFD0028D7D097E777
S315000039409DF80D30022BB2D128790021FFF73AFC01
S3150000395008B148458CD12879FFF71CFC5146002850
S3150000396086D10520FFF72EFC0028A7D0A4E700BFCC
S315000039701403FE1F20B1034B1B6803600020704731
S3150000398001207047B07F000088B1104B426A9A420E
S3150000399001D00720704783694BB190F82020022A96
S315000039A007D01A8842F400721A800020704701205E
S315000039B070471888C0F3C03030B91A886FEA42429F
S315000039C06FEA52421A8070470820704743444152BA
S315000039D098B10B4B426A9A4201D00720704783691F
S315000039E05BB190F82020022A1A8814BF22F40072D4
S315000039F0C2F30E021A80002070470120704700BFF4
S31500003A004344415270B1084B426A9A4201D00720A2
S31500003A107047836933B11B8813F4004F0CBF002035
S31500003A20082070470120704743444152D0B1CB1C57
S31500003A30DBB21E2B01D903207047002930B40ADB04
S31500003A40104C0588012354F825408B40234202D1AF
S31500003A50032030BC70470C4B446A9C4204D00720BC
S31500003A6030BC7047012070473AB183693BB11031D1
S31500003A70002033F811301380EBE70220E9E701203C
S31500003A80E7E700BF4C03FE1F4344415230B129B162
S31500003A90144B426A9A4203D00720704701207047B0
S31500003AA00B78DA1CD2B2122A16D85BB2002B30B4CD
S31500003AB007DB0D4C0588012254F825409A40224226
S31500003AC00CD04A78062A09D9816949B10B440020ED
S31500003AD083F8E02030BC7047032070470320F9E7E5
S31500003AE00120F7E7434441524C03FE1F30B129B190
S31500003AF0394B426A9A4203D007207047012070472B
S31500003B000379012B32D0F0B5876983B0002F60D0DE
S31500003B10856A002D2CD14D60054602A80C4600236F
S31500003B2020222E49019300F8042D2A880093ADF82F
S31500003B3006200B696A46022198472B78BDF80220B9
S31500003B40628104335B004FF0FF322372E2602B7A0E
S31500003B50012B04D06B882382002003B0F0BD2A69B4
S31500003B605178137843EA0123E360F3E703207047B3
S31500003B704FF0FF330122013302FA03F42C42FAD04C
S31500003B80B4F1805F1FD0B4F1005F08BF6FF001038E
S31500003B90103307EB43030B6020220126013A06FA95
S31500003BA002F42C42FAD0B4F1805F0FD0B4F1005F7A
S31500003BB008BF6FF00102103207EB4202D31A5B1006
S31500003BC001334B60A8E76FF00203E1E76FF00202F2
S31500003BD0F1E70120C1E700BF43444152947E000053
S31500003BE030B5B0F8803023F00103A0F880300388A8
S31500003BF0C3F34133012B038A43F47C5383B00D4650
S31500003C0003821CD000240480448220232A88009446
S31500003C1068468DF80030ADF8022000F0F7FEAB6A7A
S31500003C20DB000AD5EB6803B11C7002A80022222330
S31500003C30019200F8043D00F0E9FE03B030BD038AAE
S31500003C4043F03F030382DDE700285CD02F4B426A36
S31500003C509A4201D0072070478369002B53D030B5B4
S31500003C6090F82C20044650B2002510F1210F83B0A5
S31500003C70656217D043099B0003F1604303F5614376
S31500003C80012102F01F0201FA02F2C3F88020C3F8F4
S31500003C90802100F0C5FE1E4B94F92C201B6853F8BA
S31500003CA032301D6094F82D2050B210F1210F18D03B
S31500003CB043099B0003F1604303F56143012102F0D0
S31500003CC01F0201FA02F2C3F88020C3F8802100F037
S31500003CD0A7FE0F4B94F92D201B6853F832300022B3
S31500003CE01A60A0692146FFF77BFF02A80025202362
S31500003CF0019500F8043D2388ADF8063000F0F0FE8B
S31500003D00284603B030BD0120704700BF43444152EE
S31500003D103884000030B129B1A94B426A9A4203D0D7
S31500003D200720704701207047F0B5866989B04EB309
S31500003D300D46A44A01882B6852F8212004461BB977
S31500003D400320A36209B0F0BD42F04052D2431A42AA
S31500003D50F6D13188C1F34131012915D06A68002AAC
S31500003D60EED1002304A804930593069300F0CAFC41
S31500003D709DF8102093070ED46B6813F0405F0AD0AD
S31500003D802B68DDE70120DDE769680029D8D01A43F2
S31500003D900A42D5D1E5E72B6813F0405109D03088A7
S31500003DA00706CDD4500700F15A8196F87A20002AEA
S31500003DB0C6D1327B520700F04D816A68E9681A4322
S31500003DC031EA0202BCD10029BAD02A7C002A40F08E
S31500003DD054819BB2B380AB88B382AB8933816B8845
S31500003DE0F380EB88F382EB8973812B6813F0405FD5
S31500003DF003D16B6813F0405F64D0002304A80493DA
S31500003E0005930693039300F07DFC6F4B9DF8180015
S31500003E109B6903A99847039B6C4A934202D80320E7
S31500003E202B688EE70028FAD16949059A694FA1FBEC
S31500003E3003139B0C02FB03F3A7FB0337BF09FB1F0E
S31500003E40F82BECD82B68DA0002D46A68D2001CD5AD
S31500003E50FBB286F8DE30E379012B00F0DD802B68BB
S31500003E6013F0805F738A00F0A38043F4807373823B
S31500003E70738A23F480637382EB68728AC3F30073D8
S31500003E8022F00102134373822B68980002D46B68F8
S31500003E90990017D5FFB286F8DF702B6813F0005F24
S31500003EA0738A7DD043F400737382738A23F40063AC
S31500003EB07382EA68738AC2F3407223F0020343EA0C
S31500003EC0420373822B7C6A7C03F0030342EA43239A
S31500003ED0A6F866302B8948F2010293422CD0A6F848
S31500003EE080302279A369022A1ED01F88C7F3413782
S31500003EF0012F2AD094F92C0010F1210F14D000F0D4
S31500003F008FFD94F82C2042F3C40323F0604323F082
S31500003F10030303F1604303F5614302F01F0101222D
S31500003F208A40C3F880211A602A8948F201039A421E
S31500003F3006D02B68002004E72279A369022AD4D18F
S31500003F4048F20103A6F88030F3E7298948F2010216
S31500003F50914241D094F92D0010F1210F15D0019313
S31500003F6000F05EFD94F82D10019B41F3C40222F08F
S31500003F70604222F0030202F1604202F5614201F062
S31500003F801F018F40C2F8807117601A8842F0400204
S31500003F901A801A8A22F03F0242F00A021A82A9E720
S31500003FA023F400737382738A43F40063738280E799
S31500003FB023F480737382738A43F4806373825BE7AE
S31500003FC0434441524C03FE1F1C7F00003F420F003A
S31500003FD083DE1B43D34D62101A8A42F03F021A82D7
S31500003FE094F82D1048B210F1210F10D0420992001A
S31500003FF002F1604202F5614201F01F018F40C2F8F2
S315000040008070C2F88071019300F00AFD019B1A8846
S3150000401022F040021A806DE73448002322220393DF
S31500004020049305930693079304A9C3688DF80C209F
S3150000403003A8984700287FF4F3AE03A800F0EAFC33
S31500004040E3681A7862F07F021A701A7842F010025A
S315000040501A7004E7EA68002A7FF472AEB5E6B1F199
S31500004060405F3FF46DAE23F07042002A7FF468AEE5
S315000040702279002A7FF464AE9BE600210C2204A874
S3150000408002F0DCFD04A800F03DFB9DF81030DB07D4
S315000040907FF576AE2A7C072A3FF672AE6B7C032B41
S315000040A07FF66EAE37882B686968C7F34137012FF4
S315000040B002EA030001EA02010DD082427FF440AE1B
S315000040C0328817060DD400293FF483AE2A89002AC8
S315000040D07FF436AE7DE68242F2D08A427FF430AE7D
S315000040E0EEE700287FF42CAEEDE700BF947E0000DB
S315000040F088B381B38B888A78C3F30E036BB9F0B5A6
S315000041008B79032B8DB00AD903F0FD04812C06D0E0
S31500004110052B04D003200DB0F0BD03207047CC79E9
S3150000412014F0DF0FF6D191F808E0BEF1020FF1D8D6
S31500004130022AEFD8CC780CB1052BEBD0CB680BB1AB
S31500004140022AE7D0012A00F02981B74C456AA54228
S3150000415003D10820DFE7012070470646B34F0888E1
S315000041604FF0200C0C460969F36100230393089372
S3150000417009930A930B933080FB68ADF80E007161CA
S31500004180327186F820E08DF80CC003A80DEB0C0107
S31500004190019398470028BED1BDF82620089BB3613D
S315000041A0C2F382035B00C2F3401208337371B2712B
S315000041B09F49228851F8220048B90B9D688841F82A
S315000041C02200B5F806E040EA0E4041F822000C2B2A
S315000041D000F0EB800E2B00F0ED8003A800F04CFC05
S315000041E0002898D1089008AA3F6903A80221B84779
S315000041F0E3689DF8202086F82C20002B00F02F8104
S3150000420053B213F1210F00F0E6808A49A07A0D68B7
S31500004210002BC0F22A8103F1604E02010EF5614EB9
S31500004220D2B28EF8002396F82C2055F833E050B21F
S3150000423043099B0003F1604302F01F0103F561434C
S3150000424001228A40CEF80060C3F88020C3F880219E
S3150000425000F0E6FB03A8032108AAB847A3789DF857
S31500004260200086F82D00012B00F0AC8043B213F13C
S31500004270210F23D06F49E27A0968002BC0F2FD8036
S3150000428003F16040120100F56140D2B280F80023CC
S3150000429096F82D2051F8337050B243099B0003F174
S315000042A0604302F01F0103F5614301228A403E602C
S315000042B0C3F88020C3F8802100F0B2FB0027F77115
S315000042C037723761F76005A805970697079700F0DC
S315000042D019FA9DF81430049722228DF81020DA0678
S315000042E07ED4190700F1A880BDF816307380B06936
S315000042F03146FFF775FCB56923880027202208A8F8
S3150000430008978DF82020ADF8223000F083FB2F802F
S315000043106F822B88A27823F4C04302F0030243EA9B
S3150000432042332B802B8823F080032B80237A012BAA
S3150000433068D03BB92B8843F480732B802B8A23F4F7
S315000043407C532B82EB89E27823F0060302F003020A
S3150000435043EA4203EB81EB89A288C3F30E03A2F57D
S315000043600042B2FA82F2520943EAC233EB81E279A1
S31500004370EB89A2F1200223F02003B2FA82F252095D
S3150000438043EA4213EB81A3792B73B379012B40D017
S315000043900023254AB36218467262BCE60D8940F2D4
S315000043A00114A5427FF4B6AECFE6E378022B3FF6C2
S315000043B0B1AE12E7E378032B3FF40FAF002B7FF487
S315000043C0A9AE0AE7E368002B3FF450AF43B213F1FE
S315000043D0210F7FF44FAF03A800F082FB0B209AE673
S315000043E0089709970A970B9704A808A9019B98476D
S315000043F000287FF47CAF0121089A9DF81430F171F2
S31500004400F2606EE72B8A23F47C5343F410632B820D
S3150000441098E7B3690022A3F8B021B36949F6991267
S31500004420A3F8A021B4E700BF43444152947E0000A4
S315000044304C03FE1F388400000023012708930993CC
S315000044400A930B938DF8117004A808A9019B98474D
S3150000445000287FF44CAF089B3772336144E753B2B0
S3150000446013F1210F3FF4F6AECFE6084902F00F0232
S3150000447011440001C2B20A76D5E6044F00F00F00DF
S3150000448012010744D2B23A7602E700BFFCEC00E024
S3150000449010B5012082B000F0E7FFEFF303830F4A67
S315000044A0103B12685BB252F833301C68EFF303809E
S315000044B0103840B200F0B4FA5CB12188E369626951
S315000044C0ADF8001000218DF8021001920BB168467C
S315000044D09847012000F0C6FF02B010BD38840000E6
S315000044E068B1084AB2F8003103F00103037092F88C
S315000044F000316FF3000382F800310020704701207D
S31500004500704700BF00C00140104991F8043143F0E4
S31500004510010381F80431B1F80431DB070CD54FF003
S31500004520FF3300E033B1B1F80421D20703F1FF33C2
S31500004530F8D40BB914207047044A92F8003160F39E
S31500004540000382F800310020704700BF00C0014020
S3150000455070B5214D82B02B6898470120FFF7D4FF34
S315000045600021AE680320B04701211C4AEC698DF892
S315000045700110032301928DF800300320A047B0F507
S31500004580C97FFAD169460520B0470520A047B0F596
S31500004590C97FFAD100220124022369468DF806203C
S315000045A08DF801308DF802308DF805308DF8004019
S315000045B02B698DF803408DF80440052098476B6DF4
S315000045C004209847AB6A20469847EB6A9847EB6CFD
S315000045D0984702B070BD00BF1C7F00000000A041DC
S315000045E000B583B002A9002341F8043D034B062021
S315000045F09B699847019803B05DF804FB1C7F000097
S31500004600037870B423B1012B34D0002070BC7047FE
S31500004610426836498A425BD9354B364EF1251D71C3
S31500004620197A41F004011972197AF02441F008014F
S31500004630B24219721C7105D91D71197A41F0100127
S3150000464019721C712C4B2D499A4294BF01230223E7
S3150000465003731C4691F81C3103F00703A3423FBFC6
S3150000466091F81C3123F00703234381F81C310378AA
S31500004670012BCAD183681D4A934233D81C4BF122C1
S315000046801A711A7A22F004021A721A7AF02122F0AA
S3150000469008021A721971164BF1221A711A7AF02150
S315000046A022F010021A7219711449037B91F81C2129
S315000046B002F007029342A8D091F81C2103F00703E9
S315000046C022F00702134381F81C31002070BC7047AA
S315000046D00B498A42B6D8094A037392F81C31002066
S315000046E070BC7047034A9342DED8D4E7000E270712
S315000046F00020004000C2EB0BFF67890900C00140A3
S31500004700FFB3C404037841F2360203F0E0034260CB
S31500004710022143F0130341F20402816003704280D8
S31500004720704700BF037843F003030370704700BF70
S31500004730014B0360704700BFB47F0000044B0021AB
S3150000474003F1300243F8041B9342FBD1704700BFCC
S315000047505403FE1F024B43F820100020704700BF91
S315000047605403FE1F08B57A4BB3F84031D90700F160
S31500004770C180774BB3F840319A0700F1B080744B93
S31500004780B3F840315B0700F19F80714BB3F84031BD
S31500004790180700F18E806E4BB3F84031D9067CD4F1
S315000047A06B4BB3F84001C0F38010002869D1684B09
S315000047B0B3F840311A0658D4654BB3F84031DB05DF
S315000047C047D4634BB3F84031980536D4604BB3F801
S315000047D04031590524D45E4BB3F840311A0512D442
S315000047E05B4BB3F84031DB0400D408BD594BDB6AA0
S315000047F0002B40F0AA80564AB2F8303143F4805379
S31500004800A2F8303108BD534B9B6A002B40F09A80CA
S315000048104F4AB2F8303143F40063A2F83031DFE793
S315000048204C4B5B6A002B40F08A80494AB2F8303123
S3150000483043F48063A2F83031CDE7464B1B6A002B68
S315000048407AD1434AB2F8303143F40073A2F83031DA
S31500004850BCE7404BDB69002B6BD13D4AB2F83031E7
S3150000486043F48073A2F83031ABE73A4B1B68002B58
S315000048705CD1374AB2F8303143F08003A2F83031C8
S315000048809AE7344B5B68002B4ED1314AB2F830318F
S3150000489043F04003A2F8303189E72E4B9B69002B89
S315000048A03FD12B4AB2F8303143F01003A2F8303131
S315000048B076E7284B5B698BBB254AB2F8303143F06B
S315000048C00803A2F8303166E7224B1B691BBB204A5E
S315000048D0B2F8303143F00403A2F8303155E71D4BEE
S315000048E09B68ABB91A4AB2F8303143F00203A2F81A
S315000048F0303144E7174BDB683BB9154AB2F8303123
S3150000490043F00103A2F8303133E703209847F4E778
S3150000491002209847E6E704209847D8E705209847FD
S31500004920CAE706209847BCE79847AEE700209847B5
S315000049309FE70720984790E70820984781E70920D6
S31500004940984772E70A20984762E70B20984752E794
S31500004950006000405403FE1F0278452A2BD8294BDD
S315000049609B5CFF2B25D0F0B403F0200647884078E7
S3150000497006F0FF0403F01F05FEB101242B2A04FAFA
S3150000498005F634D0332A01D1012836D09B091E4AB8
S3150000499052F8233041BBEFF31082012181F31088D6
S315000049A0196821EA0601196082F310880020F0BC1C
S315000049B070470320704701207047134E38449B0907
S315000049C02D1A012256F8233002FA05F60029E2D004
S315000049D0EFF3108082F3108819683143196080F371
S315000049E010882046F0BC70470320F0BC7047072FA4
S315000049F0CCD9013504FA05F6C8E76A1C00FA02F6B6
S31500004A00C4E700BFF0830000E08300000121FFF748
S31500004A10A3BF00BF0021FFF79FBF00BF704700BFC5
S31500004A20002808DB800000F1804000F5C6400368DE
S31500004A3023F48033036070470B4A0C4B10B49B1A67
S31500004A400B4CDB08236063B10A4800219388C3F34B
S31500004A50090340F8043F236801318B4202F1080242
S31500004A60F4D85DF8044B70470005000010050000FF
S31500004A708403FE1FFC620040164B10B41C687CB118
S31500004A80154B00681A681368984218BF002304D1B2
S31500004A900AE052F8041F814207D00133A342F8D13D
S31500004AA003205DF8044B704700230C4A126801216D
S31500004AB0134403E0C3E8401F0028F2D0D3E84F2F89
S31500004AC012F0FF0FF6D0BFF32F8F08205DF8044BCE
S31500004AD0704700BF8803FE1F8C03FE1F9003FE1F56
S31500004AE00F4B10B41C687CB10E4B00681A68136833
S31500004AF0984218BF002304D109E052F8041F8142EE
S31500004B0006D00133A342F8D15DF8044B7047002369
S31500004B10054A12680021D1545DF8044B704700BF66
S31500004B208803FE1F8C03FE1F9003FE1F38B50A4C38
S31500004B300A4D0B480B490C4B0C4A04602D1BAD0863
S31500004B400D601A603DB104EB850520460434FFF77D
S31500004B50C7FFAC42F9D138BD10050000C006000001
S31500004B608C03FE1F8803FE1F9003FE1F7802FE1FA4
S31500004B70EFF31081012383F31088124B33F81020D2
S31500004B8092B22AB133F81020013A92B223F81020DB
S31500004B9033F810309BB293B910B40B4A0B4CB2F8F1
S31500004BA0FE3334F810009BB243F4254323EA000396
S31500004BB0A2F8FE3381F310885DF8044B704781F349
S31500004BC0108870479403FE1F00E001403C840000FB
S31500004BD030B4EFF31084012383F310880D4A32F8C2
S31500004BE010309BB25BB90C4D0C49B5F8FE3331F869
S31500004BF010109BB243F425430B43A5F8FE3332F85D
S31500004C00103001339BB222F8103084F3108830BC88
S31500004C10704700BF9403FE1F00E001403C84000083
S31500004C20024B00221A805A809A8070479403FE1F16
S31500004C300C4A08B513688BB1033020F003000A490B
S31500004C401844884202D81060184608BD01F0F0FFEB
S31500004C500C2303604FF0FF33184608BD034B136067
S31500004C60EAE700BF9C03FE1F4819FE1F4809FE1F06
S31500004C7000BE704708B500F005F800F033F9FEE70E
S31500004C80704700BF284A38B5D2F8883043F470031D
S31500004C90C2F888300020FFF7F3FFFFF74FFD234BE4
S31500004CA01B689847FFF7BCFFFFF752FC204A214BD1
S31500004CB021481B68002414809847204A204B9B1AE1
S31500004CC005D01344214603F8011D9A42FBD11D4825
S31500004CD01D4BC01A07D01D4A184412F8011B03F8D1
S31500004CE0011B8342F9D1FFF77BFC194C194B1A4D76
S31500004CF018602D1B0120FFF7C3FF032DC8BF2D1918
S31500004D0004DD54F8043B9847AC42FAD1FFF70EFF96
S31500004D10FFF792FE114B12481B6898470020BDE82A
S31500004D203840FFF77BBE00BF00ED00E0947E000038
S31500004D303803FE1F9C7D0000388500001C03FE1F03
S31500004D404409FE1FE402FE1FC001FE1FD0860000BC
S31500004D506C02FE1FA003FE1F7002FE1FB07E000045
S31500004D604484000010B510484FF0FF3100F050FAAF
S31500004D7008B100BEFDE70D4B1A781AB1BDE8104028
S31500004D8000F0B6B801220A4C1A7000F089F82368C0
S31500004D90013B2360002BF1D0034800F04FFA0028B6
S31500004DA0F5D000BEFDE700BF9807FE1F9407FE1F63
S31500004DB0B407FE1F30B50D4C0D4A236889B04FF479
S31500004DC080650092012213440A20B02102920392C8
S31500004DD0059204900691236001950649064A074804
S31500004DE0002300F037FA09B030BD00BFB407FE1F3C
S31500004DF04829FE1F54840000654D00009004FE1FE4
S31500004E0010B510484FF0FF3100F002FA08B100BEAD
S31500004E10FDE70D4B1A781AB1BDE8104000F096B8C0
S31500004E2001220A4C1A7000F03BF82368013B23600C
S31500004E30002BF1D0034800F001FA0028F5D000BE9F
S31500004E40FDE700BF9807FE1F9407FE1FB407FE1F6D
S31500004E5070B50D4C0D4A236888B0012000920344BA
S31500004E6002224FF480660A25B02102920392059031
S31500004E7006912360019604950549064A06480023D3
S31500004E8000F0E8F908B070BDB407FE1F482DFE1FFC
S31500004E90D0840000014E00004005FE1F704700BF91
S31500004EA0FFF7FCBF704700BF70B50A4B0A4E0B49AF
S31500004EB00024012205461C60094834701C2300F0BA
S31500004EC053F9FFF7C5FFFFF775FF2846FFF7EAFF1F
S31500004ED070BD00BFB407FE1F9407FE1F24850000A7
S31500004EE09807FE1F08B572B600F09EFA002008BDAE
S31500004EF02DE9F843134BDFF850909F681E685968F8
S31500004F003A683046904701221346BC691E21304656
S31500004F10A047BB683046984700244FF06408053424
S31500004F20E4B2962000F096FEA9FB04235B0908FB79
S31500004F301344E4B20122214613463046BD69A84710
S31500004F40EDE700BF788400001F85EB5138B51D4C96
S31500004F5002F072FDA368616820681B6898470146E5
S31500004F6050B1194B1B68D80702D5184801F06EFEE0
S31500004F704FF0FF3000F06EFE134D08E04FF0FF30AB
S31500004F8000F068FEA36820689B68984768B9A36824
S31500004F9020685B6898470028F4D02B68DA07EDD5BF
S31500004FA001460B4801F052FEE8E72B68DB0704D404
S31500004FB04FF0FF3000F04EFEE9E70146054801F0EC
S31500004FC045FEF5E7F801FE1FF0ED00E070850000F4
S31500004FD098850000C4850000054B1B68DB0700D4DC
S31500004FE070474268034B044833F8121001F02EBE96
S31500004FF0F0ED00E03006FE1FEC85000008B1342B12
S3150000500001D01C207047F8B5EFF3108372B6DFF8B5
S3150000501098E0DEF800400134CEF8004083F31088B3
S315000050201E4C1F4B25681C6855B1A04218BF0023B3
S3150000503002D105E0A04203D00133AB42246AF9D184
S31500005040054617460E46EFF3108372B6DEF80020CB
S31500005050013ACEF8002083F3108800F029FEA5421D
S3150000506019D0012F0ED8EFF305830E4A11680B43B2
S315000050700AD0EFF3058312681343B3F1F03F03D26E
S315000050801320F8BD1F20F8BD284631463A46BDE834
S31500005090F84000F0EBB91C20F8BD00BFBC07FE1FAE
S315000050A0C007FE1F0402FE1F8408FE1F18B1026817
S315000050B0074B9A4201D01C207047EFF30583054A3F
S315000050C01268134301D01320704700F0FFB900BFE8
S315000050D04554554D0402FE1F18B1134B02689A42FF
S315000050E001D01C20704710B489B9104AEFF305832C
S315000050F014680E4A234312D0EFF305831268134354
S31500005100B3F1F03F0BD213205DF8044B7047EFF379
S315000051100583064A14682343E8D00420F4E75DF8C3
S31500005120044B00F033BA00BF4554554D0402FE1F30
S3150000513018B10B4B02689A4201D01C207047EFF35E
S315000051400583084A11680B4308D0EFF305831268FC
S315000051501343B3F1F03F01D21320704700F0EABACF
S315000051604554554D0402FE1F08B11C2B01D00C20DE
S315000051707047F8B5EFF3108372B6DFF890E0DEF80B
S3150000518000400134CEF8004083F310881C4C1D4BC0
S3150000519025681C6855B1A04218BF002302D105E05E
S315000051A0A04203D00133AB426469F9D105461746E4
S315000051B00E46EFF3108372B6DEF80020013ACEF801
S315000051C0002083F3108800F073FDA54215D0EFF39D
S315000051D005830D4A11680B4308D0EFF30583126867
S315000051E01343B3F1F03F01D21320F8BD28463146F0
S315000051F03A46BDE8F84000F0A5BB0C20F8BD00BF5C
S31500005200D807FE1FC807FE1F0402FE1F8408FE1FE4
S3150000521018B1084B02689A4201D00C20704739B188
S31500005220EFF30583044A1268134301D00420704744
S3150000523000F0B2BB414D45530402FE1F18B102688F
S31500005240034B9A4201D00C20704700F0E3BB00BF2D
S31500005250414D45532DE9F04F85B00EAD129C01949A
S31500005260139C009495E82007149C08B1B02C03D039
S315000052700E2005B0BDE8F08FEFF3108472B6DFF8AC
S3150000528014E1DEF800600136CEF8006084F3108881
S315000052903D4E3E4C36680296246836B3A04224D072
S315000052A008F1FF362E4400278B460393E1688D42B2
S315000052B03ED323699D423BD24FF0010C00258E421E
S315000052C007F1010705D321698E423CBF4FF0010C5F
S315000052D000250299D4F888408F4204D0A04202D01B
S315000052E0BCF1010FE2D1039B5946074602931646CD
S315000052F08B46EFF3108372B6DEF80020013ACEF843
S31500005300002083F3108800F0D3FCA742B0D06DB123
S3150000531066B1B8F1C70F0ED9B9F11F0F0DD8D14537
S315000053200DD3009B012B0CD91020A2E70320A0E788
S315000053304FF0000CC3E705209BE70F2099E71820E4
S3150000534097E7EFF30583124A11680B4308D0EFF392
S31500005350058312681343B3F1F03F01D2132088E7A7
S31500005360019B1293009B1393029B0E953846594658
S315000053703246CDF83C80CDF84090CDF844A005B03B
S31500005380BDE8F04F00F070BB7C08FE1F7408FE1FDE
S315000053900402FE1F8408FE1F2DE9F04700F002FC00
S315000053A0144BDFF870A0DFF87090DFF87080124FB2
S315000053B0124E134D134C01221A6000F0A5FDDFF8C2
S315000053C060C0DFF860E010481049114A0023CAF8AF
S315000053D00030C9F80030C8F80030CCF80030CEF8FC
S315000053E000303B6033602B60236003600B6013600A
S315000053F0BDE8F0878408FE1FDC07FE1FE007FE1FDE
S31500005400D407FE1FCC07FE1FE807FE1FC007FE1FBE
S31500005410BC07FE1FC807FE1FD807FE1FE407FE1FB6
S31500005420C407FE1FB807FE1F10B50C4C236813F106
S315000054300F3F06D04FF0F033236000F0E3FDFFF797
S31500005440ABFF074A4FF0F03310682360FFF72CFDDF
S3150000545000232360BDE8104000F014BE0402FE1FC6
S31500005460D007FE1F704700BF704700BF70B50446E7
S315000054700E4615460021342201F0E0FB66602561E8
S31500005480EFF3108072B60C4A0C4913680C4E0D4DA2
S3150000549026600D600C495BB109684D6A4C622C624E
S315000054A0656221620133136080F31088002070BDAD
S315000054B0246264620C60F5E7BC07FE1F6C08FE1FE1
S315000054C04554554DBD630000C007FE1F2DE9F84346
S315000054D0EFF3108272B62A490B680024013B046080
S315000054E00B60002B42D127490B60DFF89C80C16816
S315000054F0D8F800308469C56900260133C8F8003041
S315000055008661C66141B10123836082F3108800F091
S3150000551011F9EFF3108272B682F31088BDB100273D
S315000055200126013DEFF3108372B6D8F80020A76676
S315000055300132C4F88460C8F80020D4F8709083F370
S315000055401088204600F0D2FB4C46002DE9D1EFF33F
S31500005550108372B6D8F80020013AC8F8002083F309
S31500005560108800F0A5FB0020BDE8F883054C036A0F
S315000055702568416A596285420B6208BF2360B4E719
S31500005580BC07FE1FC007FE1F8408FE1FF8B5EFF319
S31500005590108572B6334A83681468C3B90123C460A0
S315000055A0836084B10369012B3ED0D4F8A830002B68
S315000055B046D01A6B1863D0620263C362D4F8A43073
S315000055C00133C4F8A43085F310880020F8BDC26802
S315000055D0A24204D031B985F310881D20F8BD0133ED
S315000055E08360F0E7C369204EE066A6660BBB846164
S315000055F0246764671D4F3E68013301364FF00D0C7A
S315000056004FF0010EC3613E60E164C4F830C0C4F8D7
S3150000561038E085F310880369734516D0204600F0FC
S31500005620DBFBD4F88400F8BDE36A43612023836280
S31500005630BBE786692667776F67673C677467D9E754
S31500005640C4F8A800C0620063B8E7E16A836A8B42C7
S31500005650D36A88BF81629942E0D2104600F008F80A
S31500005660DCE700BF8808FE1F516300008408FE1FA8
S315000056702DE9F843EFF3108672B6026BC0F8A0105E
S3150000568052B1D0F89C20C162914228BF1146C16335
S3150000569086F31088BDE8F8830D462349DFF890901D
S315000056A00B68C26402334FF0030E012204460B60FE
S315000056B0D9F80070C0F830E08263D0F82C8086F309
S315000056C0108800F089FBEFF3108372B6D4F89C20A3
S315000056D0E562AA4228BF2A46E26383F31088204681
S315000056E000F004FBEFF3108272B6D9F800309C424A
S315000056F007D0216B29B9D96AE36A8B4205D8BC4227
S3150000570008D082F31088BDE8F883E06B8342F8D9AD
S315000057108142F6D3454588BF0449C9F8004088BF91
S3150000572041F82340EDE700BF8408FE1FEC07FE1F8B
S315000057308C08FE1FEFF3108272B6816819B982F3E6
S3150000574010881E2070472DE9F0417C4CC368246800
S31500005750A34282B0164603D0794C2468002C49D067
S315000057600139816000294BD1002B49D0D3F8A41010
S315000057700139C3F8A410002946D1C3F8A8108169DD
S315000057800469002971D0012CD3F898106C4C00F0F4
S315000057908F80C369012B05464ED90269012A3CD088
S315000057A08769002F00F0A9804FF00008D7F8A420E1
S315000057B0002A4FD1C7F8A850ED622D630132013B94
S315000057C00120C7F8A420EB61EF60A860002B3BD155
S315000057D0AB612368002201332360BA66C7F88420D0
S315000057E086F310882B69012B46D0384600F07EFAE6
S315000057F0002002E082F310881E2002B0BDE8F0818E
S3150000580082F310880020F8E7D3F8A850C16A046B29
S315000058100C638542E162B2D1AFE72368019101339F
S31500005820236086F3108800F0EBFDEFF3108672B666
S3150000583023680199013B2360AF69002F5DD02B6976
S31500005840012B52D0EB69AFE73B6F7A6FAB615A67BA
S315000058501367BEE7D7F8A800D0F830E00563CEF8A6
S315000058602C50C5F830E0E862A8E7002C8BD1C46064
