S00E0000746573745F342E73726563C3
S11300004030FE1F89340000A12F00008534000019
S113001085340000853400008534000000000000B1
S11300200000000000000000000000008534000013
S11300308534000000000000C95100001553000081
S1130040FFFFFFFFFFFFFFFFFFFFFFFFFFFFFFFFBC
S1130050FFFFFFFFFFFFFFFFFFFFFFFFFFFFFFFFAC
S1130060FFFFFFFFFFFFFFFFFFFFFFFFFFFFFFFF9C
S1130070FFFFFFFFFFFFFFFFFFFFFFFFFFFFFFFF8C
S1130400FFFFFFFFFFFDFFFFFFFFFFFFFFFFFFFFFA
S1130410FFFFFFFFFFFFFFFFFFFFFFFFFFFFFFFFE8
S1130420FFFFFFFFFFFFFFFFFFFFFFFFFFFFFFFFD8
S1130430FFFFFFFFFFFFFFFFFFFFFFFFFFFFFFFFC8
S1130440FFFFFFFFFFFFFFFFFFFFFFFFFFFFFFFFB8
S1130450FFFFFFFFFFFFFFFFFFFFFFFFFFFFFFFFA8
S1130460FFFFFFFFFFFFFFFFFFFFFFFFFFFFFFFF98
S1130470FFFFFFFFFFFFFFFFFFFFFFFFFFFFFFFF88
S1130480FFFFFFFFFFFFFFFFFFFFFFFFFFFFFFFF78
S1130490FFFFFFFFFFFFFFFFFFFFFFFFFFFFFFFF68
S11304A0FFFFFFFFFFFFFFFFFFFFFFFFFFFFFFFF58
S11304B0FFFFFFFFFFFFFFFFFFFFFFFFFFFFFFFF48
S11304C0FFFFFFFFFFFFFFFFFFFFFFFFFFFFFFFF38
S11304D0FFFFFFFFFFFFFFFFFFFFFFFFFFFFFFFF28
S11304E0FFFFFFFFFFFFFFFFFFFFFFFFFFFFFFFF18
S11304F0FFFFFFFFFFFFFFFFFFFFFFFFFFFFFFFF08
S113050020000000200001002F0000002F00010047
S11305100C00010011000000300000003000010058
S11305202400000024000100240002002400030031
S1130530240004002400050013000000170000003C
S1130540230000002100000021000100070000003A
S11305500700010007000200070003000700040071
S1130560070005000700060007000700120000004E
S113057044000000080000000B00000041000000DF
S1130580400000004000010004000000430000009F
S11305902B0000002B000A002B000B002B000C008A
S11305A02B000D002B0001002B0002002B00030088
S11305B02B0004002B0005002B0006002B00070075
S11305C02B0008002B0009000600000006000A00AA
S11305D006000B0006000C0006000D0006000E00CD
S11305E006000F00060001000600020006000300DA
S11305F006000400060005000600060006000700C9
S1130600060008000600090015000000150001009E
S113061015000200310000002A000000450000001F
S113062010000000030100000300000003000100AB
S11306300F0000000D0000002D000000420000002B
S11306402C0000002C0001002C0002002C000300F0
S11306503200000028000000180000001400000010
S1130660140001001400020014000300140004002C
S1130670140005001400060014000700140008000C
S113068014000900340000003400010016000000CA
S1130690160001003500000036000000360001009D
S11306A02200000033000000330100002900000094
S11306B010B5054C237833B9044B13B10448AFF398
S11306C000800123237010BD5401FE1F00000000B0
S11306D050750000084B10B51BB108480849AFF32A
S11306E000800848036803B910BD074B002BFBD0FA
S11306F0BDE81040184700BF00000000507500001E
S11307005801FE1FAC00FE1F0000000040B1012391
S11307100521022201704370C3708270002070476B
S113072001207047F0B583B00024019450B149B161
S113073042B190F83E60012E054618BF072004D050
S113074003B0F0BD012003B0F0BD2F4616460D46A0
S11307500C601A4601A903F099FA30B110282BD085
S113076004280CBF14206420EAE7796B019C62180A
S1130770931C6054507003F8010B03F8010B03F849
S1130780010B03F8010B03F8010B03F8010B03F849
S1130790010B03F8010B03F8010B1870937A43F073
S11307A080039372019B2B60186033783BB1937A7A
S11307B043F001039372C3E74FF4FA60C0E71846AD
S11307C0BEE700BF4369C26804338B4210B4446B74
S11307D004D940F2D1705DF8044B70471034013AEB
S11307E004FB02328A42F4D3C91AB1FBF4F304FBCA
S11307F01311002940F2D1705DF8044B08BF0020AA
S1130800704700BFA0B190F83E30012B0ED079B1F3
S11308100B686BB1F0B58A684E6802F11004A64209
S113082083B007D840F2D27003B0F0BD08207047FF
S113083001207047032A03D840F2D37003B0F0BDFF
S11308409207F9D1CA68002A37D01F46BB0704D0E3
S1130850033626F0030627F003070D463246044606
S11308600021384604F01EFFAA6802F11000B6FB0E
S1130870F0F00028D6D04FF0300E29696263A063EF
S11308800C3200963B46CDF804E0204603F01EFAF5
S113089008B16420C8E7EB6823631A68A08732B103
S11308A053F8042F013080B2002AF9D1A087012324
S11308B0002084F83E3003B0F0BD4FF4FB60B3E792
S11308C060B32DE9F04190F83E80B8F1010F02D0F9
S11308D00720BDE8F081838F076B064603B33A68AF
S11308E03AB35468002307E054F8043B186803F053
S11308F0E3FA80B93A682B465288934203F1010522
S1130900F2D3B38F434508F1010109D957F8042FF5
S11309107AB18846E5E76420BDE8F081012070479C
S1130920304603F03DFA0028F5D186F83E00BDE8D4
S1130930F0814FF4FB60BDE8F08100BF2DE9F04782
S113094082B048B141B190F83E60012E09D007242D
S1130950204602B0BDE8F0870124204602B0BDE87D
S1130960F08705460F469046FFF72CFF0446002803
S1130970EED1696B7B18EFF3108986F310889A7AAD
S1130980100607D489F3108840F2D974204602B0C7
S1130990BDE8F08718F0040F1CBF42F002029A72FF
S11309A018F001025E681CD07D58002D3CD093F8ED
S11309B00A804FF0010AC8F34008997A002262F3D2
S11309C0000199721A81002139609A7A02F0FD02BD
S11309D061F3C71238469A7203F0F8F960B16424DF
S11309E0B6E71889B8B97D5825B39A7A4FF0010A49
S11309F0C2F34008D207E6D589F31088BAF1000F94
S1130A00A6D0B8F1000F12D001238DF80030019662
S1130A106846A8479CE7013880B218810028E2D0D4
S1130A20154690469246E7E7A846AA46C5E78DF8DC
S1130A300080ECE7A846AA469A7ADBE738B131B1E0
S1130A402AB190F83E00012803D007207047012006
S1130A50704710B514460846002121601A46214605
S1130A6003F056FA40B10A2804D0042814BF142015
S1130A70642010BD40F2D67010BD00BF002863D0C2
S1130A802DE9F04F0E4687B0002963D090F83E5010
S1130A90012D03D0072007B0BDE8F08F83460293F1
S1130AA01446FFF78FFE0028F5D1DBF83090002CB8
S1130AB04CD0A3680193D4F804A023780093BBF826
S1130AC03C2052B3D9F800303BB302F1FF3C1FFA8B
S1130AD08CFC09EB8C0C96F80080CE46002704E0D1
S1130AE0E64519D05EF8043FB3B11A784245F7D110
S1130AF058685D8800230BE050F8041B72780C7969
S1130B00944204D84979914224BF0137BFB20133DA
S1130B10AB42F1D1E645E5D127B940F2D57007B033
S1130B20BDE8F08FDBF83420B518EFF31080012313
S1130B3083F31088A97A09060ED480F3108840F252
S1130B40D97007B0BDE8F08F01207047A246019428
S1130B500094B4E701209EE72F8146F802A0019A91
S1130B606A6080F31088BBF83C00002850D0A9F1DB
S1130B7004099C460023CDF80CB00193CB46E14612
S1130B8004E0814509F1010243D291465BF8042F48
S1130B90347811788C42F4D1576850884FF0010AA8
S1130BA00022824202F101082CD257F8044B7378D8
S1130BB022799A4202D862799A4201D24246F0E7F7
S1130BC0009B2068109A0596012B05A91DD003F0FF
S1130BD0BFF990B10B2840F2D77318BF6423019377
S1130BE0EFF310838AF310882A89013A2A8183F368
S1130BF01088029A0AB123681360DBF80030424679
S1130C005888CEE7039B988FBBE703F061F9E0E7D0
S1130C10019001983FE700BF70B4104C2368020AAA
S1130C209A4216D26568C0B200F11006012355F845
S1130C30225003FA06F62E420BD069B100EB0210E3
S1130C40A36853F82030C3F3400300200B7070BC3A
S1130C507047032070BC70471846FBE71C01FE1F59
S1130C60084B1A68000A904201D30320704731B13F
S1130C70DA684301043200209B580B80704701203E
S1130C80704700BF1C01FE1F084B1A68000A9042FF
S1130C9001D30320704739B1DA68430104320020DC
S1130CA09B581B0C0B807047012070471C01FE1FD2
S1130CB0144A1368F0B4040A9C421DD25768C5B2A2
S1130CC005F11006012357F8244003FA06F62642DC
S1130CD012D0A1B1D468000A0434400103FA05F229
S1130CE0005992B202EA1040904213BF0020002043
S1130CF00B700870F0BC70470320F0BC70471846B6
S1130D00FBE700BF1C01FE1F0C4B10B41C68000A5B
S1130D10A04200D21AB903205DF8044B7047DB6887
S1130D205DF8044B083303EB401022EA0103114041
S1130D3041EA034141600020704700BF1C01FE1FCF
S1130D40134BF0B41C68020AA2420AD25F68C5B20F
S1130D5005F11006012457F8222004FA06F616427B
S1130D6002D10320F0BC70470129FAD800F47F4077
S1130D700AD0AC4024040021DB68083303EBD00024
S1130D800C4344600020EDE7A94089B20024F3E756
S1130D901C01FE1F40B10123042102220170437093
S1130DA0C37082700020704701207047012901D967
S1130DB0032070472C4BF0B51C68020AA2424ED2A5
S1130DC05D68C0B200F11006012455F82250B44009
S1130DD02C4244D000EB02109C681D6954F820306A
S1130DE000293ED043F00401204E0E40EFF310875B
S1130DF0012383F310881E4B1A8892B222B94FF054
S1130E00400EEA7085F803E01A88013292B21A8023
S1130E1087F31088CF0354F8202007D5154F22F408
S1130E2080320F4044F8202044F8207044F82060B9
S1130E30EFF31081012282F310881A880C4892B2D1
S1130E401AB10288013A92B202801B889BB213B98C
S1130E508022EB70EA7081F310880020F0BD03203B
S1130E60F0BD23F00401BFE71C01FE1FD5FC011FE8
S1130E707001FE1FD5FC001F0AB9032070470B4BFD
S1130E8010B41C68000AA04203D303205DF8044B8D
S1130E907047DB6822EA0104400108330A4042EA51
S1130EA00442C2505DF8044B002070471C01FE1F31
S1130EB00AB9032070470D4B70B41C68000AA042A5
S1130EC002D3032070BC70474001DD682E582B58B4
S1130ED002EA01043443A4B261EA02021B0C224078
S1130EE01B041A432A50002070BC70471C01FE1FCB
S1130EF02DE9F041002839D009681E4D002701EB87
S1130F00C000B8464FF0010E8C88002335F813203A
S1130F10A24218D00133032BF8D108318142F3D116
S1130F20FF43FFB2012002F05DFA134A92F8BB348A
S1130F3048EA030808EA070782F8BB740120BDE801
S1130F40F04102F01FBA0A6802F0B852B2F1807F91
S1130F5005D00EFA03F647EA0602D7B2DAE70EFA2C
S1130F6003F248EA02085FFA88F8D3E78046FF27CD
S1130F70D8E700BF4469000000E0014070B582B0CA
S1130F8002AB002403F8044D054618460E4601F052
S1130F90E7FF9DF80430DB0702D4062002B070BDE1
S1130FA0202D02D9032002B070BD012EFAD8084BBF
S1130FB01A69137805D02B4303F0300320461370CD
S1130FC0ECE703F0300323EA050520461570E5E756
S1130FD01C01FE1F002867D02DE9F84F4368002B41
S1130FE05FD00146804631F8040BFFF781FFB8F863
S1130FF00030002B52D02D4CDFF8B4E0A146002283
S113100001204FF0400B4FF0800AD8F80430DEF88E
S1131010107053F83260DEF8085003EBC20399886D
S11310200B0AC9B201EB0313EFF3108C80F31088A1
S1131030218889B211B9F97087F803B02188013188
S113104089B221808CF3108816F4803F55F8231060
S113105007D021F4803126F4803C45F8231045F86C
S113106023C045F82360EFF3108180F310882388B0
S11310709BB22BB1B9F80030013B9BB2A9F8003008
S113108023889BB213B9FB7087F803A081F31088FF
S11310900132B8F8003092B29342B6D80020BDE8CD
S11310A0F88F0120BDE8F88F012070477001FE1F02
S11310B01C01FE1F002832D04368002B2FD0F0B54E
S11310C087B006AC002309210193164A04F8141DC5
S11310D0154ED7680293054603930493059302A91A
S11310E02046B8474FF00A0C029ABDF80C308DF830
S11310F004C002A9F2602046059A72603360B847C2
S11311000122029B8DF8052002A92046B360B8474E
S1131110029B33612846FFF75DFF07B0F0BD012055
S1131120704700BFD46900001C01FE1F2DE9F04187
S1131130304C2268050A954284B003460CD262689A
S1131140C6B20F464FF0010806F1100152F82520EF
S113115008FA01F1114203D1032004B0BDE8F08183
S113116004A902AA41F80C2D4046ADF80C300297B0
S1131170ADF8008006EB0515FFF7BAFE2069A268FA
S1131180EFF3108488F310881B490B889BB213B9C2
S11311904026C370C6700B8801339BB20B8084F366
S11311A01088FC0352F8253007D523F4803327F444
S11311B0803442F8253042F8254042F82570EFF398
S11311C01082012383F310880B880B4C9BB25BB90C
S11311D00B889BB213B98021C370C17082F310884D
S11311E0002004B0BDE8F0812388013B9BB223803A
S11311F0EEE700BF1C01FE1F7001FE1F012901D98B
S1131200032070472C4BF0B51C68020AA2424ED250
S11312105D68C0B200F11006012455F82250B440B4
S11312202C4244D000EB02109C681D6954F8203015
S113123001293ED023F00101204E0E40EFF3108728
S1131240012383F310881E4B1A8892B222B94FF0FF
S1131250400EEA7085F803E01A88013292B21A80CF
S113126087F31088CF0354F8202007D5154F22F4B4
S113127080320F4044F8202044F8207044F8206065
S1131280EFF31081012282F310881A880C4892B27D
S11312901AB10288013A92B202801B889BB213B938
S11312A08022EB70EA7081F310880020F0BD0320E7
S11312B0F0BD43F00101BFE71C01FE1FD5FC011F77
S11312C07001FE1FD5FC001F024658B1064B0749AA
S11312D01B68002B08BF0B460020596803EB8103F1
S11312E013607047012070473001FE1FC86A000078
S11312F088B10A4B1B6863B15A6800F1100103EB13
S1131300820353F8042F40F8042B8842F9D10020BB
S113131070471C2070470120704700BF3001FE1F3A
S113132070B36AB3174BF0B51E681EB3164B07783B
S11313301B68002404E00134B44203F1080319D00B
S11313409D79BD42F7D193F805E04588B5EB9E0F32
S1131350F1D1DD7990F801E005F00F0CF445EAD104
S1131360B1EB151FE7D19B881470C3F309035380B5
S11313700020F0BDDF21FF23117053800B20F0BD4E
S113138001207047A801FE1F206F000020B1034B0D
S11313901B6803600020704701207047EC6900005F
S11313A070B42A4C216851B1234604F57F700022A1
S11313B001E053F8041F83420A44FAD11AB100BE73
S11313C01D2070BC7047224D22482A600368190C06
S11313D0B1F5807F02D0002070BC704719680139D4
S11313E00331F8D81C495E6A8E42F4D12B6001683F
S11313F06368486804EB830301EB800101F1230077
S1131400233301214FF47E4503E0013201310138D9
S1131410013B25FA02F4E40707D5072A10D0082A6D
S113142007D01E780478A642C9D11029EDD1002036
S1131430D2E70478372CE8D01E78A642E5D0BEE780
S113144006781C78A642E0D2B9E700BFC86A00005B
S11314503001FE1F9CB17F405237465300285ED0B6
S113146000295CD08B4B2DE9F0439A6890F800C0BA
S113147003EB82029478A44537D24FEA1C1802EB9E
S113148088060CF00F073589D2F804E025FA07F92D
S113149019F0010F29D0072FB67A09D902EB880871
S11314A00CF0070798F80BC00CF00F0C66442D0ADB
S11314B0DFF8E481DFF8E4C118F80780754F08EA23
S11314C0050524091CF80550023402EB8402AC190A
S11314D002EB440532F814206C78C2F309022506A5
S11314E003EB820305D4002B4BD14FF4AF60BDE86E
S11314F0F08317F8222045785208FDB14FF0020E10
S1131500012604271C78E40705F1FF3552D5052A86
S113151000F2BE80DFE802F0332D211C1A05012001
S113152070479A781EFB0264033204EB9202920025
S113153013441A7854082246002DE3D1042A00F2F9
S1131540A480DFE802F0636363503B000822EFE706
S11315509A7817FB02629200EAE793F804C09C7839
S113156014FB0CF2D41C0CF1030204EB9202920063
S1131570DEE71A79033222F003020C32D8E70C2298
S1131580D6E74478B4B9DC78C4F303144C72DC783D
S11315900125C4F303048C728D804088002843D154
S11315A037F822200EEB02220A609B78CB80087267
S11315B0C86015E040F27950BDE8F083DA78C2F3F0
S11315C003124A72DA78C2F303028A725878C88026
S11315D000228A800A72CA605B680B608307E9D5BF
S11315E00020BDE8F083DA78C2F303124A72DA7895
S11315F0C2F303028A725A78CA809A788A800433C2
S113160004200022CB6008720A60E9E7DC78C4F3A6
S113161003144C72DC78C4F303048C721D79ACB2ED
S11316208C804088844203D840F27A50BDE8F0832D
S1131630DC889E68012A04FB00640C601CD0022A2A
S11316400AD09C785B78002243EA0424CC800A7296
S1131650CA60002CE8D0C3E71C18EA1C247BCC80A9
S11316609D780D72920805FB002003EB80030C3378
S1131670CB60002CD8D0B3E7034400221C7BCC8081
S11316800A72CA60002CCFD0AAE76420BDE8F083B8
S113169000224DE7C86A00004C690000546900004C
S11316A0034B04301B6823F820100020704700BF50
S11316B07401FE1F034B021D1B68002023F8220047
S11316C0704700BF7401FE1F034B1A68137863F060
S11316D07F031370002070477401FE1F034B1A68C8
S11316E0137803F07F031370002070477401FE1F0A
S11316F020B1034B1B680360002070470120704732
S11317000C6A000060B1012808D1094B1B68002055
S113171040214122187119711A71704701207047D4
S1131720034B1B6840214122987099709A7070474E
S11317307401FE1F002836D070B51C4986B0002302
S11317400B22019302930393049305930546CB68FC
S11317508DF8042001A802A99847044608B106B0F0
S113176070BD134E029B336001A801F06DFD6B68E0
S113177073B130682346AA6812F8231002EB83027F
S11317800431528820F821206A6801339A42F2D841
S113179028780028E3D032681378002063F07F03B0
S11317A0137006B070BD0120704700BFD4690000FB
S11317B07401FE1F094A0A4B12680A48916910B461
S11317C0D46919604FF400420021DC60586059610B
S11317D09A601A615DF8044B704700BF4C01FE1F0C
S11317E03401FE1F00127A00374B1B6893F828302F
S11317F013F030023DD0102A0DD0202A3AD0DFED6C
S1131800337A334AF0EE676A67EEA67AFCEEE77A3B
S1131810C2ED057A7047028D2E4902F0030231F8B9
S1131820121000294CD05B0610B44AD5038D13F076
S1131830100F0CBF03240024254A038D52F8240002
S11318405DF8044B07EE900AB8EE677A07EE901A3B
S1131850B8EE676AC3F30523C7EE067A013306EED2
S1131860903AFAEEEF6A67EEA67AFCEEE77AC2EDFA
S1131870057A704790F82B30174A9B0932F81310F9
S11318800029F6D0124A90F82B30D2ED037A03F0F7
S11318901F03B8EE677A06EE903A07EE901AF8EE58
S11318A0666AB8EE676AF7EE007A76EEA76AC7EE64
S11318B0067A67EEA67AFCEEE77AC2ED057A7047FF
S11318C070470324B8E700BF4C01FE1F000000006E
S11318D03401FE1F186A0000106A0000F8B50D4BB1
S11318E01B68064693F8205093F8217000200C469C
S11318F001F078FD96F81324E9B2BC400C4022EACA
S1131900010344EA030186F813140020BDE8F840FB
S113191001F038BD4C01FE1FF8B50D4B1B6806469F
S113192093F8225093F8237000200C4601F05AFDDE
S113193096F88124E9B2BC400C4022EA010344EA4F
S1131940030186F881140020BDE8F84001F01ABDB7
S11319504C01FE1F38B505460C46002001F042FD3F
S1131960052C0AD8DFE804F019242F033A0E95F861
S1131970323023F0010385F832300020BDE83840CE
S113198001F000BD95F82A3023F0010385F82A30D0
S11319900020BDE8384001F0F5BC95F8363023F05E
S11319A0010385F836300020BDE8384001F0EABC78
S11319B095F8383023F0010385F838300020BDE86D
S11319C0384001F0DFBC95F8903423F0010385F82A
S11319D090340020BDE8384001F0D4BC95F8803440
S11319E023F0010385F880340020BDE8384001F07D
S11319F0C9BC00BF38B505460C46002001F0F2FC16
S1131A00052C0AD8DFE804F019242F033A0E95F8C0
S1131A10323043F0010385F832300020BDE838400D
S1131A2001F0B0BC95F82A3043F0010385F82A3060
S1131A300020BDE8384001F0A5BC95F8363043F0ED
S1131A40010385F836300020BDE8384001F09ABC27
S1131A5095F8383043F0010385F838300020BDE8AC
S1131A60384001F08FBC95F8903443F0010385F8B9
S1131A7090340020BDE8384001F084BC95F88034EF
S1131A8043F0010385F880340020BDE8384001F0BC
S1131A9079BC00BF03290ED0052907D009B1002065
S1131AA0704790F83C0000F00100704790F83C004B
S1131AB0C0F34010704790F83C00C0F3C00070477A
S1131AC005292ED8DFE801F00A11181F260390F823
S1131AD02A0000F0010080F00100704790F8360001
S1131AE000F0010080F00100704790F8380000F029
S1131AF0010080F00100704790F8900400F00100AC
S1131B0080F00100704790F8320000F0010080F08E
S1131B100100704790F8800400F0010080F001009B
S1131B2070470020704700BF036A90F82630704762
S1131B3038B5054600200C4601F054FC95F81334E2
S1131B4004F0010123F0400343EA811185F81314E2
S1131B500020BDE8384001F015BC00BF38B505468B
S1131B600020144601F03EFC95F8A22004F00F0476
S1131B7022F00F02144385F8A2400020BDE838404B
S1131B8001F000BC084B1B6893F8283013F0300FA9
S1131B9004D104288CBF00200120704705288CBF85
S1131BA000200120704700BF4C01FE1F06288CBF97
S1131BB000200120704700BF90F8260000F00700C5
S1131BC0704700BF38B5054600200C4601F00AFCFA
S1131BD095F8261004F0070421F007010C4385F85A
S1131BE026400020BDE8384001F0CCBB074B1B6801
S1131BF093F828305B0601D403207047038D13F05B
S1131C00100F0CBF03200020704700BF4C01FE1FC3
S1131C1038B5044600200D4601F0E4FB238D032D66
S1131C200CBF23F0100343F0100323850020BDE80C
S1131C30384001F0A7BB00BF38B5224C2DED028B14
S1131C40236893F8283003F03003102B0546B0EED8
S1131C50408A1CD0202B02D0BDEC028B38BD002062
S1131C6001F0C0FBFCEEC87A95F82B1017EE903A01
S1131C70013B03F01F0221F01F03134385F82B30AF
S1131C80BDEC028B0020BDE8384001F07BBB002096
S1131C9001F0A8FB78EE087A2A8DFCEEE77A22F4AC
S1131CA07C5217EE903A013B03F03F0342EA0323D0
S1131CB02B85002001F066FB236893F8283003F09D
S1131CC03003C7E74C01FE1F70B51E4C236893F820
S1131CD0283003F03003102B82B0054619D0202B96
S1131CE001D002B070BD184B002033F8114001F050
S1131CF079FB95F82B3004F0030403F03F0343EA27
S1131D008413002085F82B3002B0BDE8704001F048
S1131D1039BB0E4B0191002033F8116001F062FBD6
S1131D202B8D06F0030623F003031E432E850020AB
S1131D3001F028FB2368019993F8283003F030035D
S1131D40CDE700BF4C01FE1F286A0000206A000096
S1131D5038B51A4B1A6892F8293092F82A200546A9
S1131D60180748BF08784FF0000448BF60F30E34EA
S1131D70D80644BF487860F30A24980644BF88789C
S1131D8060F30614580644BFC87860F30204D2070F
S1131D9044BF0A7962F312441B0644BF4B7963F3D0
S1131DA01E748B79002063F31A6401F01BFB2C6210
S1131DB00020BDE8384001F0E5BA00BF4C01FE1F29
S1131DC0036AC3F302330B70036AC3F302234B7039
S1131DD0036AC3F302138B70036A03F00703CB7027
S1131DE0036AC3F302430B71036AC3F302734B71B7
S1131DF0036AC3F302638B71704700BF144B4278CC
S1131E001B6893F8241091421ED393F8262090ED7A
S1131E10017A07EE902AF8EE677AF4EEC77AF1EECB
S1131E2010FA11D493F8253007EE903AF8EE677A59
S1131E30B4EEE77AF1EE10FA06D40078032805D060
S1131E40B0FA80F0400970470020704701207047C5
S1131E504C01FE1F062921D8DFE801F0080C1014FC
S1131E60181C0400006AC0F302607047006AC0F3E3
S1131E7002307047006AC0F302207047006AC0F362
S1131E8002107047006A00F007007047006AC0F350
S1131E9002407047006AC0F3027070470020704728
S1131EA010B50446FFF7D6FF94F82630034A03F032
S1131EB0070352F8233023FA00F010BD3401FE1F4B
S1131EC0024B53F82000C840704700BF3401FE1F86
S1131ED030B5044683B001200D4601F083FA02A810
S1131EE0002300F8013D00F029FF94F8AA30D80639
S1131EF0FBD494F8A030D906F7D494F8AA3023F090
S1131F00010384F8AA3094F8AA30DA06FBD494F8D2
S1131F10A030DB06F7D4042D2BD094F8A02005F0D4
S1131F20030322F00302134384F8A03094F8AA3088
S1131F30D806FBD494F8A030D906F7D494F8AA3084
S1131F40042D0CBF43F0010323F0010384F8AA30ED
S1131F5094F8AA30DA06FBD494F8A030DB06F7D460
S1131F609DF8070000F0FEFE012001F00BFA03B01B
S1131F7030BD94F8A03043F0030384F8A030D5E7D3
S1131F8090F8AA30DB075ABF90F8A00000F00300D5
S1131F900420704710B50446002001F023FA94F899
S1131FA0403063F07F0384F8403094F8403043F0CD
S1131FB0010384F840300020BDE8104001F0E2B98C
S1131FC010B50446002001F00DFA94F8403023F0D7
S1131FD0010384F8403094F8403003F07F0384F820
S1131FE040300020BDE8104001F0CCB990F840002A
S1131FF0C009704790F8410000F00100704700BF2D
S113200038B590F8413013F0010401D1002038BDF7
S11320100546002001F0E6F995F8413023F001036C
S113202085F84130002001F0ADF9204638BD00BFED
S113203038B5054600200C4601F0D4F995F8301067
S113204004F0010421F001010C4385F83040002024
S1132050BDE8384001F096B910B50446002001F0FF
S1132060C1F994F8523043F0010384F8523000204F
S1132070BDE8104001F086B910B50446002001F017
S1132080B1F994F8523023F0010384F8523000205F
S1132090BDE8104001F076B970B5044600200D4645
S11320A0164601F09FF994F83E3003F07F0384F85C
S11320B03E3094F83E3006F0070223F0700343EA02
S11320C0021284F83E2094F83E1005F0070521F032
S11320D007010D4384F83E500020BDE8704001F034
S11320E051B900BF10B50446002001F07BF994F803
S11320F03E3063F07F0384F83E300020BDE810409A
S113210001F040B910B50446002001F06BF994F8D1
S11321103E3003F07F0384F83E300020BDE81040D9
S113212001F030B910B50446002001F05BF994F8D1
S1132130533043F0010384F853300020BDE81040CD
S113214001F020B910B50446002001F04BF994F8D1
S1132150533023F0010384F853300020BDE81040CD
S113216001F010B938B5054600200C4601F03AF9E3
S113217095F8243004F0070123F0700343EA0111B9
S113218085F824100020BDE8384001F0FBB800BFFA
S1132190124B70B41D681A6892071BD50021104CAD
S11321A0196094F823200138B0F1807FD2B20DD2A7
S11321B0F026072502F0F002586084F82360996045
S11321C01D6084F82320012070BC70471D60084600
S11321D070BC7047012070BC704700BF10E000E085
S11321E000ED00E090F8503001F00F0123F00F03F0
S11321F0194380F85010704790F8500000F00F0019
S1132200704700BF90F8503063F07F0380F850307F
S1132210704700BF90F8503003F07F0380F85030CF
S1132220704700BF90F85000C009704738B50546A4
S113223000200C4601F0D6F895F8A51004F0070428
S113224021F007010C4385F8A5400020BDE8384083
S113225001F098B8024B1B6803600020704700BF70
S1132260986A000030B52A4C87B0204600F07EFE04
S113227006A8284B002503220095DB6800F8182DDA
S113228002A9029503950495059598470298606004
S11322904FF6FF7329460193FFF712FC28B910E0AB
S11322A0019B43B1019B013B019360680021FFF74F
S11322B0F1FB0028F4D0019B1BB94FF4CD7007B09B
S11322C030BD60680621FFF7B1FF4FF6FF7301933D
S11322D0FFF770FA60680421FFF78CFB04E0019BB0
S11322E043B1019B013B019360680421FFF7E8FBC4
S11322F00028F4D1019B002BDFD060680421052263
S1132300FFF712FC60680021FFF706FB0020D6E708
S11323104C01FE1FD469000070B169B170B5074E5D
S1132320044670680D46FFF747FC29462070706824
S1132330FFF746FD002070BD012070474C01FE1FD1
S113234070B582B000294CD00546002846D0334CE5
S11323506068FFF715FE042806463FD060686946AA
S1132360FFF72EFD23689A680AB1032E4AD0DA6873
S113237052B3022E28D193F829205969160703D5A0
S11323809DF8000088423AD3D00603D59DF8010099
S1132390884234D3960603D59DF8020088422ED392
S11323A0500628D4120603D59DF805208A4226D368
S11323B093F82A30DB0703D59DF804308B421ED3F3
S11323C09DF806308B421AD32946012000F0E0FD27
S11323D06068FFF7DFFD002002B070BD012002B08D
S11323E070BD0E4D6868FFF705FE044680B14FF4DA
S11323F0CB7002B070BD9DF803008842D2D2052094
S113240002B070BD93F8292019691007B8D4BBE74E
S11324106868FFF7D5FD2046E1E700BF4C01FE1FC9
S113242038B5124C6068FFF7E5FD78B16068FFF7D6
S1132430C3FB236893F8283013F0300F054603D00C
S11324405B0608D405280DD0032D0BD06068FFF778
S1132450D7FD002038BD6068FFF7C8FB052DF3D118
S11324600328F3D140F2971038BD00BF4C01FE1F82
S113247008B5034B01465868FFF7DAFD002008BD94
S11324804C01FE1F08B5034B5868FFF7E5FD00201B
S113249008BD00BF4C01FE1F08B5034B5868FFF789
S11324A0EBFD002008BD00BF4C01FE1F08B5044B26
S11324B00A4601465868FFF7EFFD002008BD00BF3B
S11324C04C01FE1F08B5034B5868FFF70BFE0020B4
S11324D008BD00BF4C01FE1F08B5034B5868FFF749
S11324E011FE002008BD00BF4C01FE1F38B5044694
S11324F0FFF748FB08B9032038BD631E012B11D92F
S1132500042C0FD02CB1032C03D0052C01D00020B7
S113251038BD114D21466868FFF7D2FA78B94FF4F7
S1132520C87038BD0C4B21465868FFF7C9FA40F211
S11325309113002814BF18464FF4C87038BD68685A
S11325402146FFF7A7FA40F2931300280CBF184660
S11325504FF4C97038BD00BF4C01FE1F70B506466C
S11325604FF6FE7440F2931501E0013C0CD0304666
S1132570FFF7BCFFA842F8D038B16FF4C873C31892
S1132580022B38BF002070BD284670BD70B582B0E4
S11325900D460446FFF7F6FA10B9032002B070BDE9
S11325A05C4E052C2146706815D0FFF789FA18B1E6
S11325B040F2911002B070BD012C4ED9032C23D0EF
S11325C0631E012B65D9042C2BD0002C67D0032C5F
S11325D01FD00020E2E7FFF773FA002844D1002D52
S11325E039D07068FFF7E8FA0528E1D02846FFF7EC
S11325F005FC0028D1D070682978FFF761FA00281B
S113260054D14FF4CA70C9E77068FFF7B9FC0428C5
S113261028D070682146FFF73DFA58B340F2931072
S1132620BCE721467068FFF795F94FF6FF730193F5
S113263004E0019B43B1019B013B019370680421B9
S1132640FFF73EFA0028F4D0019B002B0CBF4FF497
S1132650CD700020A2E70120A0E77068FFF790FC8E
S11326600428ADD1052099E77068FFF7BDF840F262
S1132670911093E73368706893F82710FFF72EF9E9
S113268070680021FFF754FA706803210922FFF7EC
S113269065FA70682146FFF75DF900207EE77068EF
S11326A02146FFF7F7F90028B8D1F2E72146706810
S11326B0FFF7F0F90028B1D1336893F828305B06AE
S11326C003D570682978FFF7A3FA69787068114C0C
S11326D0FFF7FAFA95ED010A7068FFF7ADFA706832
S11326E0FFF782F8336893F82810052001F00F01F2
S11326F0FFF7E6FB33685B68984288BF0021606897
S113270098BF0121FFF7E4FB70680521FFF722F968
S11327105FE700BF4C01FE1F70B582B00446FFF7AF
S113272031FA10B9032002B070BD2C4D6868FFF770
S113273043FA84422BD0052824D0012C2AD068687F
S1132740264E2146FFF7BCF9D0B1022C14D0042C3C
S113275029D01CB1032C01D0052C11D168681F4D60
S11327602146FFF797F938B940F29310DBE7706818
S11327702146FFF7A5F918B168682146FFF73AF931
S11327800020D0E76868FFF731FAA042D5D140F2C3
S11327909110C8E76868114EFFF728FC0028E6D0BE
S11327A040F29510BFE770682146FFF723F94FF612
S11327B0FF73019304E0019B43B1019B013B01932F
S11327C068680421FFF77CF90028F4D1019B002BF1
S11327D00CBF4FF4CD700020A5E700BF4C01FE1FD5
S11327E001280FD0022801D00020704708B5084600
S11327F00021FFF7CBFE40B140F29113984208BF8D
S1132800002008BD0846FFF787BF002008BD00BFB1
S113281051B170B500250D600C460646FFF7C6F9A8
S113282028B90323184670BD012318467047044B8A
S113283031465868FFF734FB2B462060184670BDBC
S11328404C01FE1F38B5114D2B6893F8290010F088
S1132850010000D138BD002000F0C4FD68680C4CB4
S1132860FFF7D0FC01E06CB1013C6868FFF7DAFCCB
S11328700028F8D0002000F085FD002C0CBF1420A7
S1132880002038BD00F07EFD1420E3E74C01FE1F5C
S1132890FFFF0F0038B5114D2B6893F8290010F095
S11328A0010000D138BD002000F09CFD68680C4C8C
S11328B0FFF7B0FC01E064B1013C6868FFF7B2FCCB
S11328C00028F8D100F05EFD002C0CBF142000207D
S11328D038BD204600F056FD1420E3E74C01FE1FEE
S11328E0FFFF0F00F8B51C4D2B6893F8293013F047
S11328F0010324D0194B1E5CFF2E01D10320F8BD27
S1132900002000F06FFD6868154CFFF78BFC07464C
S1132910FFF7C0FF68683146FFF764FC01E09CB133
S1132920013C6868FFF768FC8642F8D14FB9002083
S113293000F028FD002C0CBF14200020F8BD184620
S1132940F8BDFFF77FFFF2E7002FFAD1384600F019
S113295019FD1420F8BD00BF4C01FE1F906A000051
S1132960FFFF0F0008B5054B1A6892F8292092075B
S113297002D55868FFF7D6FB002008BD4C01FE1FA6
S113298008B5054B1A6892F82920920702D55868B1
S1132990FFF7D8FB002008BD4C01FE1F08B5064B0D
S11329A01A6892F82920520703D501465868FFF7A0
S11329B0D9FB002008BD00BF4C01FE1F08B500F084
S11329C03DFA07EE900AB8EE677AF7EE007A87EEE2
S11329D0877ADFED097ADFED096A67EE277AC6EEBA
S11329E0A77AFCEEE77A17EE900AFFF7D1FB0028EE
S11329F00CBF1220002008BD0024744900401C466E
S1132A0008B903207047FFF7D9BF00BFF0B587B0FE
S1132A100C460546FFF7B6F810B9032007B0F0BD21
S1132A20002C78D0684EA179326892F829301F07BB
S1132A306AD4D80602D560788842EED323F07F03A7
S1132A4003F0FF0013B163798B42E6D392F82A3086
S1132A50DF0702D523798B42DFD3042D58D000231E
S1132A6028468DF808308DF81430FFF729FA06212E
S1132A7003907068544FFFF713FA049002A800F013
S1132A80EDF90028CAD17868FFF796F8854205D099
S1132A90002D42D0032D40D0052D3ED070684A4F02
S1132AA00021FFF715FA70686946FFF789F99DF868
S1132AB00620A3799A4244D221467868FFF748F960
S1132AC078682946FFF77EF800F0B8F93F4B042DEB
S1132AD018603FD0022D4DD0012D54D0032D57D076
S1132AE0052D68D006217068FFF7DAF901230490F8
S1132AF002A88DF8083000F0B1F9044600288DD101
S1132B00FFF75CFF204689E72078884285D390E769
S1132B1061B1052082E7012080E770682946FEF74D
S1132B20B9FF0028BAD140F2931077E763790BB16B
S1132B300028EED17068FFF759FA0028E9D1A1798D
S1132B408DE778682946FFF73DF878682146FFF756
S1132B50FFF8B9E733681C4993F82820120625D4F6
S1132B609A685AB95B68002BBCD070680121FFF7E2
S1132B70AFF9B7E733689A68002AF3D07068032185
S1132B80FFF7A6F9AEE733685B68002BAAD0ECE741
S1132B9033685A68904201D9002AA3D19B689842AD
S1132BA00ED9002B9ED0002AE8D0DEE748682946DB
S1132BB0FFF78EF996E733685B68984292D8D4E7BA
S1132BC0002B8FD0DAE700BF4C01FE1FC401FE1FAB
S1132BD000287DD02DE9F047054686B006A80023DD
S1132BE02F7800F8113D04A98DF810308DF81130BC
S1132BF08DF812308DF813308DF814308DF81530AF
S1132C008DF81630FFF788FB95F815E0EE7C297DEA
S1132C10EA7DAB7D2C7E8DF808E038468DF80A609D
S1132C208DF809108DF80B208DF80C308DF80D40BF
S1132C30FEF7A8FF18B9032006B0BDE8F0872B788B
S1132C4006AA134413F8103C012BF4D0022C41D0F3
S1132C50DFF8E480D8F8003093F8283013F0300F10
S1132C6014BF06260526002440F2911905F1040A32
S1132C70052CE1B248D002AB185DFFF7B1FD08B1F5
S1132C804845D9D10134B442F2D13846FFF766FC45
S1132C900028D1D105F10C013846FFF7B7FE002812
S1132CA0CAD19DF80740A74210D006AB234413F8BD
S1132CB0100C012822D0D8F80400FEF797FF06ABC9
S1132CC00344014613F8100C012810D00020B3E788
S1132CD0012070472879FEF755FF0028ABD02B79E7
S1132CE006AA134413F8103C012BB1D1A3E7052C19
S1132CF0ECD18F42EAD0FFF773FD9DE72146FFF741
S1132D006FFD0028D7D097E79DF80D30022BB2D184
S1132D1028790021FFF73AFC08B148458CD128797D
S1132D20FFF71CFC5146002886D10520FFF72EFC36
S1132D300028A7D0A4E700BF4C01FE1F68B1084AD1
S1132D40B2F8003103F00103037092F800316FF31D
S1132D50000382F80031002070470120704700BF53
S1132D6000C00140104991F8043143F0010381F897
S1132D700431B1F80431DB070CD54FF0FF3300E028
S1132D8033B1B1F80421D20703F1FF33F8D40BB9FE
S1132D9014207047044A92F8003160F3000382F86B
S1132DA000310020704700BF00C0014070B5214DC4
S1132DB082B02B6898470120FFF7D4FF0021AE684A
S1132DC00320B04701211C4AEC698DF8011003234C
S1132DD001928DF800300320A047B0F5C97FFAD1E5
S1132DE069460520B0470520A047B0F5C97FFAD150
S1132DF000220124022369468DF806208DF8013053
S1132E008DF802308DF805308DF800402B698DF86F
S1132E1003408DF80440052098476B6D04209847C3
S1132E20AB6A20469847EB6A9847EB6C984702B028
S1132E3070BD00BF306A00000000A04100B583B03F
S1132E4002A9002341F8043D034B06209B699847DF
S1132E50019803B05DF804FB306A0000037870B495
S1132E6023B1012B34D0002070BC7047426836492E
S1132E708A425BD9354B364EF1251D71197A41F0E2
S1132E8004011972197AF02441F00801B24219724E
S1132E901C7105D91D71197A41F0100119721C7148
S1132EA02C4B2D499A4294BF0123022303731C46E1
S1132EB091F81C3103F00703A3423FBF91F81C3182
S1132EC023F00703234381F81C310378012BCAD173
S1132ED083681D4A934233D81C4BF1221A711A7A23
S1132EE022F004021A721A7AF02122F008021A72ED
S1132EF01971164BF1221A711A7AF02122F010027C
S1132F001A7219711449037B91F81C2102F007020B
S1132F109342A8D091F81C2103F0070322F0070282
S1132F20134381F81C31002070BC70470B498A425E
S1132F30B6D8094A037392F81C31002070BC70475C
S1132F40034A9342DED8D4E7000E2707002000404E
S1132F5000C2EB0BFF67890900C00140FFB3C40442
S1132F60037843F003030370704700BF014B036011
S1132F70704700BF9C6A0000044B002103F130023B
S1132F8043F8041B9342FBD1704700BF7801FE1F36
S1132F90024B43F820100020704700BF7801FE1F49
S1132FA008B57A4BB3F84031D90700F1C180774BAB
S1132FB0B3F840319A0700F1B080744BB3F8403154
S1132FC05B0700F19F80714BB3F84031180700F1A3
S1132FD08E806E4BB3F84031D9067CD46B4BB3F87A
S1132FE04001C0F38010002869D1684BB3F8403128
S1132FF01A0658D4654BB3F84031DB0547D4634B0C
S1133000B3F84031980536D4604BB3F840315905D4
S113301024D45E4BB3F840311A0512D45B4BB3F899
S11330204031DB0400D408BD594BDB6A002B40F06F
S1133030AA80564AB2F8303143F48053A2F83031B2
S113304008BD534B9B6A002B40F09A804F4AB2F85C
S1133050303143F40063A2F83031DFE74C4B5B6A54
S1133060002B40F08A80494AB2F8303143F480633F
S1133070A2F83031CDE7464B1B6A002B7AD1434A84
S1133080B2F8303143F40073A2F83031BCE7404B5E
S1133090DB69002B6BD13D4AB2F8303143F48073C5
S11330A0A2F83031ABE73A4B1B68002B5CD1374AAE
S11330B0B2F8303143F08003A2F830319AE7344B50
S11330C05B68002B4ED1314AB2F8303143F04003F3
S11330D0A2F8303189E72E4B9B69002B3FD12B4A54
S11330E0B2F8303143F01003A2F8303176E7284BC0
S11330F05B698BBB254AB2F8303143F00803A2F870
S1133100303166E7224B1B691BBB204AB2F83031D1
S113311043F00403A2F8303155E71D4B9B68ABB96B
S11331201A4AB2F8303143F00203A2F8303144E7CE
S1133130174BDB683BB9154AB2F8303143F0010351
S1133140A2F8303133E703209847F4E70220984788
S1133150E6E704209847D8E705209847CAE7062001
S11331609847BCE79847AEE7002098479FE70720B9
S1133170984790E70820984781E70920984772E725
S11331800A20984762E70B20984752E70060004006
S11331907801FE1F0278452A2BD8294B9B5CFF2B14
S11331A025D0F0B403F020064788407806F0FF04E9
S11331B003F01F05FEB101242B2A04FA05F634D0CE
S11331C0332A01D1012836D09B091E4A52F82330F4
S11331D041BBEFF31082012181F31088196821EAC1
S11331E00601196082F310880020F0BC70470320A8
S11331F0704701207047134E38449B092D1A012251
S113320056F8233002FA05F60029E2D0EFF31080D5
S113321082F3108819683143196080F310882046BE
S1133220F0BC70470320F0BC7047072FCCD90135A0
S113323004FA05F6C8E76A1C00FA02F6C4E700BF00
S1133240D86E0000C86E00000021FFF7A3BF00BFC6
S1133250A0F101000028FBD1704700BF2DE9D04345
S113326001FB00F4FFF7EAFD4FF47A71A4FB018936
S113327000274FF0FF364F4508BF46450C4BB3FBC4
S1133280F0F005D3B8FBF0F0800860B9BDE8D08356
S11332908000B4FBF0F0A0FB01018F4208BF86421E
S11332A0F3D24FF0FF30BDE8D043FFF7D1BF00BFEA
S11332B000CA9A3B0B4A0C4B10B49B1A0B4CDB080C
S11332C0236063B10A4800219388C3F3090340F8DB
S11332D0043F236801318B4202F10802F4D85DF8FF
S11332E0044B70470005000000050000A801FE1F04
S11332F0FC6200400F4B10B41C687CB10E4B00689C
S11333001A681368984218BF002304D109E052F8E0
S1133310041F814206D00133A342F8D15DF8044B67
S113332070470023054A12680021D1545DF8044B0C
S1133330704700BFAC01FE1FB001FE1FB401FE1FA9
S113334038B50A4C0A4D0B480B490C4B0C4A046027
S11333502D1BAD080D601A603DB104EB85052046B8
S11333600434FFF7C7FFAC42F9D138BD00050000B3
S1133370B0060000B001FE1FAC01FE1FB401FE1F29
S1133380B000FE1FEFF31081012383F31088124B6A
S113339033F8102092B22AB133F81020013A92B2D5
S11333A023F8102033F810309BB293B910B40B4AB1
S11333B00B4CB2F8FE3334F810009BB243F42543AF
S11333C023EA0003A2F8FE3381F310885DF8044B6E
S11333D0704781F310887047B801FE1F00E0014078
S11333E0246F000030B4EFF31084012383F31088BA
S11333F00D4A32F810309BB25BB90C4D0C49B5F84C
S1133400FE3331F810109BB243F425430B43A5F867
S1133410FE3332F8103001339BB222F8103084F3BB
S1133420108830BC704700BFB801FE1F00E00140A7
S1133430246F0000024B00221A805A809A80704741
S1133440B801FE1F0C4A08B513688BB1033020F095
S113345003000A491844884202D81060184608BD7F
S113346002F01AF90C2303604FF0FF33184608BD2D
S1133470034B1360EAE700BFC001FE1F4020FE1F9C
S11334804010FE1F00BE704708B500F005F800F0BC
S1133490EDF9FEE7704700BF284A38B5D2F8883006
S11334A043F47003C2F888300020FFF7F3FFFFF7FE
S11334B063FD234B1B689847FFF7BCFFFFF776FCBF
S11334C0204A214B21481B68002414809847204A35
S11334D0204B9B1A05D01344214603F8011D9A4240
S11334E0FBD11D481D4BC01A07D01D4A184412F8C1
S11334F0011B03F8011B8342F9D1FFF79FFC194C10
S1133500194B1A4D18602D1B0120FFF7C3FF032D23
S1133510C8BF2D1904DD54F8043B9847AC42FAD1D6
S1133520FFF70EFFFFF7C6FE114B12481B689847C2
S11335300020BDE8384000F01FB800BF00ED00E0F7
S1133540D46900007001FE1F08690000CC6F000000
S11335505401FE1F3C10FE1F1C01FE1F0000FE1F35
S113356054750000A400FE1FC401FE1FA800FE1F26
S1133570F06900002C6F000000F044B882B04FF0F6
S1133580C84300210091009A1A7D61F300021A7564
S11335901A8DD0B1202161F30F221A851A8D4FF0B4
S11335A0C04142F080021A850A68009240F6FF7218
S11335B01946019204E0019B013B0193019A12B167
S11335C08A6A5206F7D502B070474FF0C04142F400
S11335D07F421A850A6800921A8D60F3C7121A8511
S11335E00A68009240F6FF711A46019105E0019BBA
S11335F0013B0193019B002BE5D0936A5B06F6D453
S113360002B07047F8B54D490A684FF0C84400232A
S113361022F0400210200A602063A36123626363E6
S1133620C4F80438227A63F304022272237DFF2251
S113363043F0010323752261237D662243F00103D5
S113364023752261237D992243F0010323752261AE
S1133650237D43F00103237501212320FFF7FEFDA1
S11336609F232361364B22691A7022695A7021699B
S1133670227D997042F0010222751A78EF2A04D053
S113368000221A705A709A70F8BD5A78402AF7D1FD
S11336909A78172AF4D1052020612A4923690B70EE
S11336A0227D294B42F001023526227526612269CA
S11336B01A70227D42F001022275228D042565F3E1
S11336C0030222852279502765F3030222712761C0
S11336D0227D42F0010222751A78012742F002028B
S11336E01A7027610A7822611A782261227D3A438E
S11336F022752561227D3A432275228860F30202F5
S11337002280206122690A70227D3A432275266153
S113371022691A70237D3B432375238843F04003B9
S11337202380A369DB074FF0C845FAD40120FFF7D3
S113373025FF2B7D6FF300032B75F8BD007004404B
S1133740C801FE1FCC01FE1FD001FE1F00BE704742
S113375000B583B000F090F8064B07481B68074992
S11337609847019018B1064801A9FFF7EFFF03B08D
S11337705DF804FBEC6800001C0BFE1F0000FE1F3C
S1133780486F0000FFF7E4BF10B510484FF0FF3159
S113379000F052FC08B100BEFDE70D4B1A781AB1D7
S11337A0BDE8104000F06EB901220A4C1A7000F016
S11337B037F82368013B2360002BF1D0034800F065
S11337C051FC0028F5D000BEFDE700BF100CFE1F21
S11337D00C0CFE1F2C0CFE1F30B50C4D0C4B2A6834
S11337E089B04FF480600093B0210123D418019074
S11337F002930393049305930691064A06490748E6
S11338002C60002300F03AFC09B030BD2C0CFE1FE4
S11338104030FE1F89370000546F00005C0BFE1F10
S1133820FFF7B0BF704700BF70B50C4B0C4E0D498D
S11338300024012205461C600B4834701C2300F050
S1133840A7FB00F063F800F0ADF800F0F7F8FFF71D
S1133850C3FF2846FFF7E6FF70BD00BF2C0CFE1F18
S11338600C0CFE1F686F0000100CFE1F08B572B62A
S113387000F04CFE002008BD30B583B0402538244C
S1133880009501940749084B0848012200F0ACFA5E
S1133890009501940649074B0748012200F0A4FA59
S11338A003B030BD7C6F0000140AFE1F300CFE1FF5
S11338B0A06F0000D409FE1F680CFE1F10B510484D
S11338C04FF0FF3100F0B8FB08B100BEFDE70D4B2F
S11338D01A781AB1BDE8104000F034B901220A4C3C
S11338E01A70FFF79DFF2368013B2360002BF1D082
S11338F0034800F0B7FB0028F5D000BEFDE700BF89
S1133900100CFE1F0C0CFE1F2C0CFE1F30B50C4DB2
S11339100C4B2A6889B04FF448700093B0210123FE
S1133920D418019002930393049305930691064AD5
S1133930064907482C60002300F0A0FB09B030BD05
S11339402C0CFE1F4034FE1FBD380000BC6F00006D
S1133950A00CFE1F10B510484FF0FF3100F06CFBB7
S113396008B100BEFDE70D4B1A781AB1BDE810404E
S113397000F018B901220A4C1A70FFF751FF2368AE
S1133980013B2360002BF1D0034800F06BFB0028BF
S1133990F5D000BEFDE700BF100CFE1F0C0CFE1F8F
S11339A02C0CFE1F30B50C4D0C4B2A6889B04FF41B
S11339B080600093B0210123D418019002930393F3
S11339C0049305930691064A064907482C60002390
S11339D000F054FB09B030BD2C0CFE1F6037FE1FF5
S11339E05539000054730000500DFE1F10B51048E7
S11339F04FF0FF3100F020FB08B100BEFDE70D4B96
S1133A001A781AB1BDE8104000F006B901220A4C38
S1133A101A70FFF705FF2368013B2360002BF1D0E8
S1133A20034800F01FFB0028F5D000BEFDE700BFEF
S1133A30100CFE1F0C0CFE1F2C0CFE1F30B50C4D81
S1133A400C4B2A6889B04FF480600093B0210123A5
S1133A50D418019002930393049305930691064AA4
S1133A60064907482C60002300F008FB09B030BD6C
S1133A702C0CFE1F603BFE1FED3900006473000038
S1133A80000EFE1FF0B58BB002F08AFD2748284FC8
S1133A9001F0A0FE274A0023966815688DF80C30C3
S1133AA007930893099302E0322001F045F9746901
S1133AB021490023284604AAA047049C237813B96B
S1133AC06388012B1BD0B468284605A903AA4FF4C8
S1133AD09673A0470028E7D105993B680870022433
S1133AE001204FF0FF3248804B604C700344009239
S1133AF034693B60284607AA06ABA047D4E761783F
S1133B0039B101290CD0F36804992846002298475A
S1133B10D9E70A48626801F0CDFD61780129F2D144
S1133B206268074801F0C6FDEDE700BF747300004A
S1133B30540AFE1F486F0000300CFE1F94730000EF
S1133B40D473000070B582B002F02AFD114801F070
S1133B5041FE114B9E681D6802E0012001F0ECF863
S1133B6074690E494FF0FF33284601AAA047019B10
S1133B701C78002CF1D15A88012AEED159785A6860
S1133B80074801F097FD2246F368019928469847B3
S1133B90E3E700BF14740000486F0000680CFE1FC8
S1133BA0307400002DE9F04389B002F0F9FC1748A5
S1133BB0174F01F00FFE174A0023966815688DF819
S1133BC008300593069307934FF001094FF0FF382F
S1133BD002E0CD2001F0B0F8284603A902AA002390
S1133BE0B468A0470028F4D103993B680870487072
S1133BF04B60A1F802900133CDF8008028463B6069
S1133C0005AA04AB3469A047E3E700BF7874000059
S1133C10580AFE1F486F00002DE9F04389B002F0F6
S1133C20BFFC1748DFF8608001F0D4FD154A00237B
S1133C30966815688DF80830059306930793012755
S1133C404FF0FF3902E0642001F076F8284603A91A
S1133C5002AA0023B468A0470028F4D10399D8F835
S1133C60003008704B604F704F800133CDF80090E6
S1133C70C8F80030284605AA04AB3469A047E2E737
S1133C8094740000486F00005C0AFE1FB0B110B4C9
S1133C900C4B04689C4203D002205DF8044B70472F
S1133CA071B13AB1EFF30583074C2468234301D083
S1133CB00420F2E75DF8044B00F082BA022070475A
S1133CC00320EAE7434F4C423C00FE1F2DE9F04736
S1133CD0DDF82080099C08B1302C02D00220BDE818
S1133CE0F087EFF3108472B6DFF8B0E0DEF800502E
S1133CF00135CEF8005084F31088254D254C2E68EC
S1133D00246856B1A04218BF002502D105E0A042A4
S1133D1003D00135B542A46AF9D105461F461646BB
S1133D208946EFF3108372B6DEF80020013ACEF82C
S1133D30002083F3108801F02DF8A542CED01FB3E4
S1133D4026F00303043328F00302934219D8EFF357
S1133D500583114A11680B4309D0EFF305831268F8
S1133D601343B3F1F03F02D21320BDE8F087CDF83E
S1133D7020802846494632463B46BDE8F04700F0DD
S1133D8097BA0520BDE8F0870320BDE8F08700BF9F
S1133D90CC0EFE1FD80EFE1F3C00FE1F7C0FFE1F24
S1133DA018B10268074B9A4201D002207047EFF322
S1133DB00583054A1268134301D01320704700F0AD
S1133DC0DDBA00BF434F4C423C00FE1F30B150F8F7
S1133DD0043C1BB11A68034B9A4201D0032070477C
S1133DE000F01ABB434F4C422DE9F047DDF8208028
S1133DF0099C08B1382C02D00920BDE8F087EFF304
S1133E00108472B6DFF8ACE0DEF800500135CEF86D
S1133E10005084F31088244D244C2E68246856B135
S1133E20A04218BF002502D105E0A04203D001350D
S1133E30B542246BF9D105461F4616468946EFF371
S1133E40108372B6DEF80020013ACEF8002083F326
S1133E50108800F09FFFA542CED0C7B1731E0F2B70
S1133E6012D8B6EB980F0FD8EFF30583104A1168F8
S1133E700B430FD0EFF3058312681343B3F1F03F04
S1133E8008D21320BDE8F0870520BDE8F0870320A1
S1133E90BDE8F087CDF820802846494632463B46A7
S1133EA0BDE8F04700F050BBBC0EFE1FDC0EFE1F49
S1133EB03C00FE1F7C0FFE1F18B10268034B9A42A0
S1133EC001D00920704700F075BB00BF554555511E
S1133ED0B0B110B40C4B04689C4203D009205DF8C7
S1133EE0044B704771B13AB1EFF30583074C246872
S1133EF0234301D00420F2E75DF8044B00F098BBA3
S1133F00092070470320EAE7554555513C00FE1F40
S1133F10B0B110B40C4B04689C4203D009205DF886
S1133F20044B704771B13AB1EFF30583074C246831
S1133F30234301D00420F2E75DF8044B00F0FEBBFC
S1133F40092070470320EAE7554555513C00FE1F00
S1133F50B0B110B40C4B04689C4203D009205DF846
S1133F60044B704771B13AB1EFF30583074C2468F1
S1133F70234301D00420F2E75DF8044B00F0CABCEF
S1133F80092070470320EAE7554555513C00FE1FC0
S1133F9008B11C2B01D00C207047F8B5EFF3108347
S1133FA072B6DFF890E0DEF800400134CEF800404D
S1133FB083F310881C4C1D4B25681C6855B1A04226
S1133FC018BF002302D105E0A04203D00133AB4265
S1133FD06469F9D1054617460E46EFF3108372B6AD
S1133FE0DEF80020013ACEF8002083F3108800F0B8
S1133FF0D1FEA54215D0EFF305830D4A11680B439A
S113400008D0EFF3058312681343B3F1F03F01D2F4
S11340101320F8BD284631463A46BDE8F84000F082
S113402003BD0C20F8BD00BFD00EFE1FC00EFE1F46
S11340303C00FE1F7C0FFE1F18B1084B02689A4219
S113404001D00C20704739B1EFF30583044A12689C
S1134050134301D00420704700F010BD414D455377
S11340603C00FE1F18B10268034B9A4201D00C2099
S1134070704700F041BD00BF414D45532DE9F04F5D
S113408085B00EAD129C0194139C009495E8200712
S1134090149C08B1B02C03D00E2005B0BDE8F08FFD
S11340A0EFF3108472B6DFF814E1DEF80060013635
S11340B0CEF8006084F310883D4E3E4C366802967C
S11340C0246836B3A04224D008F1FF362E440027DA
S11340D08B460393E1688D423ED323699D423BD2D4
S11340E04FF0010C00258E4207F1010705D3216929
S11340F08E423CBF4FF0010C00250299D4F8884051
S11341008F4204D0A04202D0BCF1010FE2D1039B44
S113411059460746029316468B46EFF3108372B650
S1134120DEF80020013ACEF8002083F3108800F076
S113413031FEA742B0D06DB166B1B8F1C70F0ED948
S1134140B9F11F0F0DD8D1450DD3009B012B0CD90C
S11341501020A2E70320A0E74FF0000CC3E70520DE
S11341609BE70F2099E7182097E7EFF30583124A9E
S113417011680B4308D0EFF3058312681343B3F1BE
S1134180F03F01D2132088E7019B1293009B139305
S1134190029B0E95384659463246CDF83C80CDF800
S11341A04090CDF844A005B0BDE8F04F00F0CEBC7F
S11341B0740FFE1F6C0FFE1F3C00FE1F7C0FFE1FC2
S11341C0F8B5EFF3108572B683682BBB1AB985F383
S11341D010881020F8BD184C436A2468174FE06615
S11341E05E1CE167A766466213B3036A2367596FCF
S11341F061670C675C671249E2640B68082001334D
S113420001220B602063A26385F31088204600F02E
S113421055FED4F88400F8BD0269013B141D836087
S11342200C6013680361106085F310880020F8BDEA
S1134230046224676467DEE7800FFE1F45420000C6
S11342407C0FFE1F38B5EFF3108272B6C36E2BB12C
S1134250816E19B114491C688C4202D082F3108813
S113426038BD596A0029F9D001390024846659629D
S1134270C1B11D6A016F446F4C678542216711D03B
S1134280036B082BEAD109490B68102401330B6036
S1134290C0F8844082F3108800F09AFDEFF3108296
S11342A072B6DBE71962EBE7434F4C427C0FFE1F0B
S11342B02DE9F843894614460021302280461F46E2
S11342C0089E01F0EFF9E21C22F0030226F0030637
S11342D0151DC8F81860C8F80490C8F81C20C8F860
S11342E01470B6FBF5F607EB050E002E38D000204F
S11342F0014674460131B1423C502C442844F9D162
S1134300481E6FF003039B1A05FB00E50022C8F862
S11343100810C8F80C10EA50C8F81070EFF31080B9
S113432072B6134A13491368C8F80010124983B1CE
S11343300968CC6AC1F82C80C4F82880C8F82C40DD
S1134340C8F828100133136080F310880020BDE8FA
S1134350F883C8F82880C8F82C80C1F80080F1E7F9
S1134360C8F80860C8F80C600520BDE8F88300BFF1
S1134370CC0EFE1F434F4C42D80EFE1F2DE9F041D8
S11343800346EFF3108672B620490A680020013A0A
S113439018600A60002A2ED11D490A601D4F186A50
S11343A03A685C6A002501323A601D625D6286F3F8
S11343B010889CB10126013CEFF3108372B63A6871
S11343C085660132C0F884603A60D0F8708083F367
S11343D0108800F0FDFC4046002CECD1EFF3108374
S11343E072B63A68013A3A6083F3108800F0D2FC5E
S11343F00020BDE8F08106489A6A0468D96AD1624F
S11344009C428A6208BF0260C8E700BFCC0EFE1F50
S1134410D80EFE1F7C0FFE1F70B5EFF3108572B629
S113442050F8042C136ADBB1516A01395162A9B105
S1134430196F5C6F11624C6721670F4CDE6F226845
S113444000210132996630602260C3F8841085F33C
S11344501088184600F0BCFC002070BD1162ECE727
S11344609368116940F8041D01331061936085F36A
S11344701088002070BD00BF7C0FFE1F2DE9F0479F
S113448000F002FC144BDFF870A0DFF87090DFF846
S11344907080124F124E134D134C01221A6000F01B
S11344A0A5FDDFF860C0DFF860E010481049114A4C
S11344B00023CAF80030C9F80030C8F80030CCF83E
S11344C00030CEF800303B6033602B602360036023
S11344D00B601360BDE8F0877C0FFE1FD40EFE1F37
S11344E0D80EFE1FCC0EFE1FC40EFE1FE00EFE1FD4
S11344F0B80EFE1FB40EFE1FC00EFE1FD00EFE1F10
S1134500DC0EFE1FBC0EFE1FB00EFE1F10B50C4CC1
S1134510236813F10F3F06D04FF0F033236000F00F
S1134520E3FDFFF7ABFF074A4FF0F0331068236059
S1134530FFF77AF900232360BDE8104000F014BEB1
S11345403C00FE1FC80EFE1FF8B517460D46382264
S1134550002104461E4601F0A5F8BB00069AB2FBF2
S1134560F3F203FB02636560A760E3616261E260EA
S1134570A66126626662EFF3108072B60A4A0B499E
S1134580136821600A495BB109684D6B4C632C6365
S1134590656321630133136080F310880020F8BD44
S11345A0246364630C60F5E7BC0EFE1F554555514A
S11345B0DC0EFE1FF8B5EFF3108372B6056945B142
S11345C0C268C56A81694261002202610162416276
S11345D025BB2C4683F31088F5B1144F0026013D0A
S11345E084B1EFF3108372B63A68A6660132C4F858
S11345F084603A60246F83F31088606F00F0E8FBF6
S1134600002DECD1EFF3108372B63A68013A3A60A8
S113461083F3108800F0BEFB0020F8BD034FC26294
S11346203968846A82624A1C3A60D3E77C0FFE1FB1
S1134630F8B5EFF3108472B64569C36AF5B113BBDC
S1134640026A836906690F689A4208BFC26983686F
S1134650A2EB8302013D0136012B02624561066132
S1134660176007D9013B043151F8040B42F8040FD9
S1134670013BF9D184F310880020F8BD5ABB84F3C0
S113468010880B20F8BD5D1E866A46D0336F726FAA
S113469083625A6713678368F26F0F68C562012BE0
S11346A04FF00000B066176007D9013B043151F8A0
S11346B0045B42F8045F013BF9D11D4A13680025ED
S11346C001331360C6F8845084F31088304600F038
S11346D07FFB2846F8BD174D174F2D680126E86665
S11346E0E967AF66C5F88060CBB985622D676D67F1
S11346F00F4E3168013301314FF0050E0127C362BB
S11347003160EA64C5F830E0AF6384F3108828466A
S113471000F0D4FBD5F88400F8BD8562BBE7816A5C
S113472029674E6F6E6735674D678562E0E700BFA6
S11347307C0FFE1F800FFE1F355400002DE9F84347
S1134740EFF3108572B60669C46A46B374BB076A90
S1134750D0F808E03B680B60BEF1010F07F10407D5
S11347600ED90EF1FF333A4652F8044B41F8044F88
S1134770013BF9D10EF1804E0EF1FF3E07EB8E079F
S1134780C369BB42436908BF87690762013E0133BD
S11347900661436185F310880020BDE8F883002A90
S11347A064D185F310880A20BDE8F883866AD6F8B8
S11347B08030012B7DD0036A87681A680A60012F54
S11347C003F1040C0CD97B1E624652F804EB41F849
S11347D004EF013BF9D107F18043013B0CEB830C5F
S11347E0DFF82C81F16FD8F80030D1F800E0D0F870
S11347F01C90426A0133C8F80030D8F80030E14513
S113480008BFD0F818C0C0F820C0013B012FC8F879
S1134810003002F1040CC2F800E00CD904317B1E14
S113482051F804EB42F804EF013BF9D107F180475A
S1134830013F0CEB870CCC4508BFD0F818C0C0F87A
S113484024C0013C51D18462D8F80030C4620133E1
S11348500024C8F80030B466C6F8844085F3108894
S1134860304600F0B5FA2046BDE8F883264F274BC2
S11348703F68F866F967C7F88060BB66002C3AD1D8
S113488087623F677F6722490B68013401334FF029
S1134890050E0126C4620B60FA64C7F830E0BE63FB
S11348A085F31088384600F009FBD7F88400BDE88A
S11348B0F883F26F836817680F60012B07D9013BF7
S11348C0043252F8047B41F8047F013BF9D1013CE6
S11348D018D0336F726F83625A6713670C4AC462CD
S11348E01368013300241360B5E7336F726F83627A
S11348F05A671367A8E7836A3B67596F79670F673D
S11349005F67C0E78462E9E7800FFE1F355400004B
S11349107C0FFE1FF8B5EFF3108572B64469C36AC5
S11349202CB34BBB03698668426AD1F800E0013CB2
S11349300133012E4461036102F10407C2F800E06F
S11349400CD90431731E51F8044B42F8044F013B57
S1134950F9D106F18046013E07EB8607C369BB42E5
S113496008BF8769476285F310880020F8BD5ABBE9
S113497085F310880B20F8BD5C1E866A45D0336F22
S1134980726F83625A6713678368F26F0F68C46239
S1134990012B4FF00000B066176007D9013B0431CA
S11349A051F8044B42F8044F013BF9D11B4A1368F8
S11349B0002401331360C6F8844085F31088304620
S11349C000F006FA2046F8BD154E164F3668F0661C
S11349D0F167C6F88040B766CBB9866236677667FA
S11349E00E4C2168013301314FF0050E0127C362DB
S11349F02160F264C6F830E0B76385F3108830466E
S1134A0000F05CFAD6F88400F8BD8462BCE7816AE1
S1134A1031674C6F746726674E67E1E77C0FFE1FB2
S1134A20800FFE1F3554000070B504460E4615462F
S1134A3000211C2200F036FE6660A560EFF31080B2
S1134A4072B60B4A0B49136821600B495BB10968C4
S1134A508D698C616C61A56161610133136080F3C0
S1134A601088002070BD6461A4610C60F5E700BF8C
S1134A70D00EFE1F414D4553C00EFE1FF8B5EFF397
S1134A80108272B6836833BB19B982F310880D2083
S1134A90F8BD164C03692468154DE066A56603B39A
S1134AA0C56825676E6F666734676C67114E356835
S1134AB0013301354FF0060E012703613560E164CF
S1134AC0C4F830E0A76382F31088204600F0F6F9BA
S1134AD0D4F88400F8BD013B836082F31088002081
S1134AE0F8BDC46024676467E0E700BF800FFE1F61
S1134AF0AD5400007C0FFE1F38B5EFF3108472B67E
S1134B000369D3B15A1EC16815D00B6F4D6FC360D2
S1134B105D672B6703460C481A6103680022013362
S1134B2003608A66C1F8842084F31088084600F084
S1134B304FF9002038BDC260ECE78368013383601D
S1134B4084F31088002038BD7C0FFE1F2DE9F84F38
S1134B50DDF828800B9D0C9C0E9E07468B469246E2
S1134B60EF212A464046994600F09CFD0021B022E0
S1134B70384600F097FD0D9BC7F828B06A1E4244E2
S1134B8020219C42C7F844A0C7F84890C7F80C807D
S1134B907D613A61FC62C7F89840BE61FE61C7F866
S1134BA0A01057D00023FB63C7F89C3003222E4B80
S1134BB0BF653A637B6538462C4900F0ADFBEFF3E3
S1134BC0108572B62A482B4A03683A602A4AE3B928
S1134BD0C7F88870C7F88C701760284A01331168C9
S1134BE003600F9B0131012B11601AD085F31088EB
S1134BF0EFF3108372B611680139116083F31088E2
S1134C0000F0C8F80020BDE8F88F1268D2F88C10C4
S1134C10C2F88C70C1F88870C7F88C10C7F8882067
S1134C20DBE7EFF30583164A12681343B3F1F03F51
S1134C3014D3144B1C68A4B1E36AE66BE36385F3F5
S1134C401088384600F0C4F8002CDBD0E66300205E
S1134C50BDE8F88FFC63C7F89C40A7E700263446FC
S1134C60EDE72646EBE700BFC14F0000F14C000022
S1134C70740FFE1F445248546C0FFE1F7C0FFE1F1E
S1134C803C00FE1F840FFE1FF8B500240E4BDFF816
S1134C905CE00E4E0E4F0F483460214620258022E2
S1134CA01D60CEF800403C6000F0FCFC0A4A0B4E4C
S1134CB013680B4D0B480C49346043F0C5732C60EA
S1134CC004600C601360F8BD880FFE1F680FFE1FA0
S1134CD0840FFE1FE40EFE1F700FFE1F6C0FFE1FDD
S1134CE0740FFE1F7C0FFE1F640FFE1F800FFE1F3C
S1134CF038B50E4B1C68636CA06C98470C4B1B6852
S1134D000BB120469847EFF3108372B60948026846
S1134D10012100250132E56402602163A16383F36C
S1134D2010882046BDE8384000F0C8B8800FFE1F48
S1134D30640FFE1F7C0FFE1F38B5EFF3108172B6AF
S1134D40114B1C682CB1EFF30583104A126813430E
S1134D5003D081F31088132038BD10B981F3108873
S1134D6038BD0B4AC4F884301368E0640133042569
S1134D70012013602563A06381F31088204600F0AE
S1134D809DF8D4F8840038BD800FFE1F3C00FE1F40
S1134D907C0FFE1F0A4B1B688BB90A4A0A4B126828
S1134DA01B689A420BD0094B4FF080525A60EFF3C4
S1134DB0058323B9EFF3108362B683F31088704739
S1134DC07C0FFE1F800FFE1F840FFE1F00ED00E00E
S1134DD0F8B50446EFF3108572B6436E002B3ED04F
S1134DE04C3000F06BF92E4AA16B1368013B136041
S1134DF0236BB9B9FBB92B482B4B196885F3108881
S1134E00036899420DD013685BB9284B4FF0805268
S1134E105A60EFF3058323B9EFF3108362B683F38B
S1134E201088F8BD013B012BE5D9636B93B91D488C
S1134E30A3632363E0E7636B63B9E16A1C482363FC
S1134E4050F821306BB1596A16480C625C62616299
S1134E502362D1E70021032361632363CBE7C364A7
S1134E60C1E7144F40F821403B68134E24620120EF
S1134E70884003433B603368646299420948BBD26B
S1134E80036831604BB1DB6B9942B5D2046085F3A2
S1134E9010881368002BB8D0C3E70460ACE700BFE8
S1134EA07C0FFE1F840FFE1F800FFE1F00ED00E02D
S1134EB0E40EFE1F680FFE1F880FFE1FF8B5384B67
S1134EC004461D68EFF3108672B6A8423BD0354AFB
S1134ED0A16B1368012903F1FF33136014D0324B23
S1134EE086F310881B689D420DD013685BB92F4B65
S1134EF04FF080525A60EFF3058323B9EFF3108328
S1134F0062B683F31088F8BD236AE06A4FF0000E9E
S1134F10A342C4F838E021D0254F616A57F820E055
S1134F205962A6450B622ED01F4B19688C42D7D10B
S1134F302049096857F82110196086F3108813680E
S1134F40002BD4D0DFE7C36C013B033302D84C30D1
S1134F5000F08AF8184BE2691A60B8E7174B144F4F
S1134F60814047F820E0186820EA0101196069B916
S1134F7010480D4B20240460196086F310881368D0
S1134F80002BB4D0BFE747F82030CDE74B420948A7
S1134F900B40B3FA83F3C3F11F030360C4E700BFFC
S1134FA0800FFE1F7C0FFE1F840FFE1F00ED00E02C
S1134FB0E40EFE1F880FFE1F1410FE1F680FFE1F55
S1134FC0EFF3108172B6026B042A05D0836E81F36D
S1134FD0108803B118477047034A136801331360FC
S1134FE081F31088FFF7F4BE7C0FFE1FF8B5124D55
S1134FF0124E134BDFF868C0DFF868E0114F00244D
S113500021468022346028460F4E3C601C60CCF858
S11350100040CEF800400D4F00F044FB0C480D4911
S11350200D4A0E4B356005F180063D6006600C604C
S113503014601C60F8BD00BF900FFE1F1010FE1F0F
S11350402010FE1F3010FE1F2410FE1F8C0FFE1FA9
S11350501810FE1F1C10FE1F2810FE1F2C10FE1F10
S11350603410FE1F1410FE1F0268531ED91C01D8F1
S1135070816901B170470E49202A0E4A09681268F5
S113508094BF9B007C230B44934203D30A490968D1
S11350909B1A0B441A6832B151690861506141612D
S11350A0026183617047006140611860F9E700BFE5
S11350B08C0FFE1F1810FE1F2410FE1F826962B1A0
S11350C0036998420AD0416959610B6111688142B0
S11350D004BF9A611360002383617047136883429D
S11350E0F9D100231360F6E710B472B6154A164BD3
S11350F016491468164A1A600A681648164B046062
S113510042F001020A6015481B68A0FB03235B09F7
S1135110013BB3F1807F09D2114A12485360F02455
S11351200021072380F82340916013600D4BF02287
S11351300021DA7783F8222083F823105DF8044BEA
S1135140704700BF00000000C80EFE1F001000E002
S1135150643FFE1F780FFE1FC401FE1F1F85EB5125
S113516010E000E000ED00E0114B124C124813492E
S1135170002222609A809A821A801A829860D960EA
S11351809861D961EFF3088282F309880C48B0F87A
S1135190202192B2012142F48052A0F8202199806A
S11351A0998262B6074B4FF080525A60FEE700BF07
S11351B0000D00407C0FFE1F4020FE1F603FFE1FBD
S11351C00060004000ED00E04A4A1368002B7AD0EA
S11351D0EFF3098CACF1200C8CF309880CF1200C52
S11351E02CE9F00F1EF0100F07D1ACF1400C8CF33A
S11351F009880CF1400C2CED108A7146C3F890100C
S113520061463D489960016811B1002499610460C8
S113521072B63A4F3B681BB3136062B613683849E1
S11352205C689D690560013400205C608882D868F0
S11352308861186940F00300C861D3F890309E4635
S113524013689B689C461EF0100F01D1BCEC108AB9
S1135250BCE8F00F8CF3098801238B827047FEE7CA
S1135260284D294C294B4AF2025622E062B62960A5
S113527072B69989C1F3C0312960296801290FD117
S1135280B3F8FE1389B22160A3F8FE639989C1F3D0
S11352900E019981216841F4254189B2A3F8FE13D6
S11352A062B6BFF34F8F30BFBFF36F8F29680129F8
S11352B00BD072B63968094611600029D6D0144B58
S11352C01B215960A9E70C48A2E772B6B3F8FE1394
S11352D089B22160A3F8FE6399896FEA41416FEABC
S11352E051419981216841F4254189B2A3F8FE1303
S11352F062B6DEE7800FFE1F1410FE1F840FFE1F30
S1135300000D0040640AFE1F600AFE1F00E0014019
S113531000ED00E000F024B80269A2F1400222F09E
S113532007024FF00003136053609360D36013616E
S11353305361C36893614FF00003D36113625362F6
S11353409362D36213634FF0FF33536391634FF05F
S11353508073D36382606FF00203C0F890307047AB
S113536029492A480A680368013210B50A601BB14A
S1135370013B0360002B2AD0254B264C1A68216878
S1135380106800282ED0244B01221A6000F0FEF889
S11353902368CBB9214B1B685BB1214A1268934245
S11353A007D0204B1B6823B91F4B4FF080525A6023
S11353B010BD10BD1D480068043282421A601ED020
S11353C0154B1B68002BE1D100F0A6F8E2E7104B67
S11353D0104C1A681068012121600028EAD00E4B95
S11353E01960D3E711480068043282421A6006D07B
S11353F00029E5D1084B1B68002BCBD0C6E70C4A2B
S113540012681A60F4E700BF3410FE1F1410FE1F68
S11354108C0FFE1F3010FE1F1010FE1F840FFE1F86
S1135420800FFE1F7C0FFE1F00ED00E01810FE1F12
S11354302410FE1F38B5EFF3108272B6C36E2BB181
S1135440816E19B117491C688C4202D082F310880E
S113545038BDD96A0029F9D0013900248466D9629B
S1135460D1B19D6A016F446F4C678542216713D0A7
S1135470016B0529EAD11B6983B90A23C0F884307A
S113548009490B6801330B6082F31088FFF7A0FC15
S1135490EFF3108272B6D9E79962E9E70B23C0F8FB
S11354A08430EDE7554555517C0FFE1F38B5EFF3B9
S11354B0108272B6C36E2BB1816E19B114491C6887
S11354C08C4202D082F3108838BD19690029F9D0C2
S11354D00139002484661961C1B1DD68016F446F2C
S11354E04C678542216711D0036B062BEAD1094929
S11354F00B680D2401330B60C0F8844082F31088DC
S1135500FFF766FCEFF3108272B6DBE7D960EBE7D6
S1135510414D45537C0FFE1F164B1B68EFF3108261
S113552072B615490020086093B1196B81B9186AE5
S1135530D96910B4114C99619842216003D0D96A99
S1135540DB6B994207D082F310885DF8044B7047F7
S113555082F3108870470A4B0A4C43F821002068F4
S1135560094953F820300B6082F310885DF8044B2E
S1135570704700BF800FFE1F3010FE1F1410FE1F67
S1135580E40EFE1F880FFE1F840FFE1F2DE9F04F4F
S113559083B0EFF3108A72B6394B1D68002D5BD1CE
S11355A0384B1B68002B57D0374E354ADFF8E08064
S11355B0DFF8E0900123B346136033681B6800935F
S11355C00BB1C3F818D03368002018603368D8F8DA
S11355D000000433834233604CD02A4A0023136012
S11355E08AF31088EFF3108A72B61F4615E0203B49
S11355F001A8236024610194A0610023C9F800403C
S11356008AF310880BB128469847EFF3108A72B6D4
S1135610019BC9F800709C4227D0009CB4B1236957
S113562001979C421FD06069586100930361C3F8DD
S113563018D02368202BDAD860682060A368E56856
S113564078B101A824610194A061D7E70D4B1B68D0
S1135650002BB2D10A4A13608AF3108803B0BDE864
S1135660F08FA061CAE70097E3E7A7612046FFF740
S1135670FBFCD2E7054B1B68CBF80030ADE700BF5D
S11356801C10FE1F1010FE1F8C0FFE1F2410FE1F87
S11356901810FE1F2010FE1F014B1868704700BF32
S11356A0A000FE1F02440346934202D003F8011BEC
S11356B0FAE770470FB40A4B13B51C6824B1A36909
S11356C013B9204600F03CFA05AB2046A168049AC1
S11356D0019300F0CDFB02B0BDE8104004B0704768
S11356E0A000FE1F70B50E46054618B183690BB9BC
S11356F000F026FAAB69AC6813B9284600F020FA2A
S1135700314B9C4201D16C6808E0304B9C4201D182
S1135710AC6803E02E4B9C4208BFEC68A3891907D0
S113572001D5236983B92846214600F0AFF858B162
S11357304FF0FF3070BD002B0EDB236816F8012CF0
S11357401A70236801332360A36816F8012B013B08
S1135750A360002AEFD116E0A269934209DB236813
S113576016F8012C1A70236819780A29EAD12846F8
S113577002E016F8011C2846224600F033F8421CC9
S113578050425041D3E7002B15DAA269934208DB5B
S113579023680A221A702368197891420FD1284687
S11357A001E028460A21224600F01CF8431C584216
S11357B0584130B1BCE723680A221A7023680133C8
S11357C023600A2070BD00BFB8740000D8740000C4
S11357D0F8740000024B01461868FFF783BF00BF4E
S11357E0A000FE1F70B50D461446064618B1836925
S11357F00BB900F0A5F9224B9C4201D1746808E072
S1135800204B9C4201D1B46803E01F4B9C4208BF6B
S1135810F468A369A360A3891A0709D523693BB176
S113582023682069181A63699842EDB20FDB08E017
S11358303046214600F02AF80028F1D04FF0FF301E
S113584070BD3046214600F011F90028F6D1A36856
S1135850013BA36023685A1C22601D7063690130F8
S1135860984204D0A389DB0707D50A2D05D1304619
S1135870214600F0FBF80028E0D1284670BD00BFA7
S1135880B8740000D8740000F8740000314B70B58F
S11358901D6806460C4625B1AB6913B9284600F0CD
S11358A04FF92D4B9C4201D16C6808E02B4B9C4274
S11358B001D1AC6803E02A4B9C4208BFEC68A38981
S11358C09AB211071DD4D50602D40922326038E0F9
S11358D0500712D5616B41B104F14403994202D0DF
S11358E0304600F003FA00236363A38923F0240302
S11358F0A3810023636023692360A38943F0080321
S1135900A38123694BB9A38903F42073B3F5007F02
S113591003D03046214600F09BF9A38913F001021D
S113592005D00022A26062695242A26103E0990795
S113593058BF6269A26022694AB903F0800080B24C
S113594030B143F04003A3814FF0FF3070BD00201D
S113595070BD00BFA000FE1FB8740000D874000022
S1135960F87400008A892DE9F041054610070C46B9
S113597057D44B68002B02DC0B6C002B18DDE66A55
S1135980B6B102F48052002392B22F682B600AB1A0
S1135990626D10E0216A28460123B047411C02468B
S11359A009D12B683BB11D2B01D0162B47D12F6099
S11359B00020BDE8F081A3895B0705D56368D21A8E
S11359C0636B0BB1236CD21AE66A216A0023284662
S11359D0B047461CA38905D12A681AB11D2A01D0F3
S11359E0162A19D100226260D9042269226004D5E2
S11359F0421C01D12B6803B96065616B2F600029DB
S1135A00D6D004F14403994202D0284600F06EF93E
S1135A1000206063BDE8F08143F04003A381BDE84A
S1135A20F0810F69002FC3D093070E6808BF4B693C
S1135A300F6018BF0023C7EB06088B6012E0A38930
S1135A4043F04003A3814FF0FF30BDE8F0812846C6
S1135A50216AA66A3A464346B0470028EFDD074468
S1135A60C0EB0808B8F1000FF1DCA1E738B50B6909
S1135A7005460C46DBB118B183690BB900F060F838
S1135A800C4B9C4201D16C6808E00B4B9C4201D149
S1135A90AC6803E0094B9C4208BFEC68B4F90C30D5
S1135AA02BB128462146BDE83840FFF75BBF0020F4
S1135AB038BD00BFB8740000D8740000F87400004A
S1135AC0014900F0A7B800BF6D5A0000002310B5CB
S1135AD0044603604360836081814366C28103613D
S1135AE04361836119465C300822FFF7DBFD054BF7
S1135AF06362054BA362054BE362054B2462236397
S1135B0010BD00BFCD630000EF63000027640000F8
S1135B104B64000070B568234D1E5D430E4605F1CD
S1135B20740100F027F9044640B1002180E84200E6
S1135B300C30A06005F16802FFF7B4FD204670BD8B
S1135B40836910B5044633BB8364C3640365124B95
S1135B50124A1B688262984204BF0123836100F0E9
S1135B601FF86060204600F01BF8A060204600F09B
S1135B7017F80421E06000226068FFF7A7FFA0681F
S1135B8009210122FFF7A2FFE06812210222FFF798
S1135B909DFF0123A36110BDB4740000C15A00002D
S1135BA0F8B51B4B1E68B369074613B93046FFF7B7
S1135BB0C7FF4836B4687368013B04D4B4F90C5089
S1135BC075B16834F8E733682BB938460421FFF718
S1135BD0A1FF306008B13668ECE70C233B60F8BDE8
S1135BE04FF6FF73E3810123A38165662560A560F9
S1135BF0656025616561A56104F15C0029460822A0
S1135C00FFF750FD6563A563A564E5642046F8BD10
S1135C10B47400002DE9F8438046894600F1480435
S1135C20002694B1A5686768013F0CD4AB89012BA9
S1135C3007D9B5F90E30013303D040462946C84789
S1135C4006436835F0E72468EBE73046BDE8F8839F
S1135C50F0B58B899D0791B006460C4626D4B1F960
S1135C600E10002909DAA38913F0800F4FF0000504
S1135C7014BF40274FF480670DE001AA00F00CFC2C
S1135C800028F0DB029D05F47045A5F500514D4256
S1135C904D414FF480673046394600F06BF860B9E7
S1135CA0A3899A051DD443F00203A38104F1470399
S1135CB0236023610123636113E00B4BB362A38967
S1135CC0206043F08003A381206167614DB13046B9
S1135CD0B4F90E1000F0F2FB18B1A38943F00103EC
S1135CE0A38111B0F0BD00BFC15A000030B5002936
S1135CF03DD051F8042C0B1F1D49002AB8BF9B1836
S1135D000A680C4612B95A600B6030BD93420DD23A
S1135D1019685818904201BF5A5852181A604268BC
S1135D205A60236030BD994203D80A46516800295D
S1135D30F9D1146815199D420AD11B682344D0185F
S1135D408842136013D10868034413604B680DE064
S1135D5002D90C23036030BD1C681819884204BFA3
S1135D6008684968596004BF00191860536030BD61
S1135D706C0AFE1F70B5CC1C24F0030408340C2CF0
S1135D8038BF0C24002C064603DA0C2333600020B1
S1135D9070BD8C42F9D3204A136810461946A1B14C
S1135DA00A68121B0ED40B2A03D90A608B188C5074
S1135DB01FE08B420DBF5A684A685A60026018BFE0
S1135DC00B4616E00B464968E9E7144D2B681BB9EE
S1135DD0304600F0EBFA28603046214600F0E6FA3F
S1135DE0421C0346D1D0C51C25F0030585420AD1C7
S1135DF01C6003F10B001A1D20F00700821A0AD060
S1135E005142995070BD3046E91A00F0CFFA013082
S1135E10BBD02B46ECE770BD6C0AFE1F680AFE1F60
S1135E209368013B002B10B5936009DA9469A3428F
S1135E3002DBCBB20A2B03D1BDE81040FFF7D2BC82
S1135E401368581C10601970C8B210BDF8B5064626
S1135E500F461446D518AC4208D0304614F8011B3E
S1135E603A46FFF7DDFF431CF5D100E00020F8BD02
S1135E702DE9F0439DB00D4690460393064618B1B4
S1135E8083690BB9FFF75CFE754B9D4201D17568C0
S1135E9008E0744B9D4201D1B56803E0724B9D420A
S1135EA008BFF568AB891C070AD52B6943B10023E9
S1135EB0099320238DF8293030238DF82A3041E0CE
S1135EC030462946FFF7E2FC0028F0D04FF0FF30BF
S1135ED0C2E0039A111D12680391002ABBBF52420B
S1135EE043F0020307920792B8BF04930134237866
S1135EF02E2B7BD0DFF8808121784046032200F0EE
S1135F00FFFA38B1049AC8EB0000402383401343DE
S1135F1004930134217855488DF82810062204F1A1
S1135F20010800F0EDFA002800F08580504B002BAA
S1135F3078D1039B073323F0070308330393099BAA
S1135F403B44099343461C4613F8012B1AB9B4EB9E
S1135F5008090ED002E0252AF5D1F8E73046294693
S1135F6042464B46FFF772FF013070D0099B4B4409
S1135F7009932378002B6AD000234FF0FF32049357
S1135F800793059206938DF853301A9304F1010890
S1135F904446DFF8E89021784846052200F0B0FA3C
S1135FA008F10108049B30B1C9EB000001228240D2
S1135FB013430493ECE7D80644BF20228DF8532002
S1135FC0190744BF2B228DF8532022782A2A80D027
S1135FD0079923461C4601332278303A092A03D80C
S1135FE00A2000FB0121F5E7079180E763782A2B5B
S1135FF00AD1039B1A1D1B680392002BB8BF4FF0F4
S1136000FF330234059375E7611C00220C4601310D
S11360102378303B092B03D80A2000FB0232F5E732
S1136020059267E703AB0093304604A92A46114B57
S1136030AFF3008007E003AB0093304604A92A467F
S11360400C4B00F093F8421C07467FF478AFAB8901
S11360505B063FF53BAF09981DB0BDE8F08300BF78
S1136060B8740000D8740000F874000022750000B1
